:020000040000fa
:080000000002040000000000f2
:020000040000fa
:04000800e60400000a
:020000040000fa
:04000c00e604000006
:020000040000fa
:04001000e604000002
:020000040000fa
:04001400e6040000fe
:020000040000fa
:04001800e6040000fa
:020000040000fa
:04001c00e6040000f6
:020000040000fa
:04002000e6040000f2
:020000040000fa
:04002400e6040000ee
:020000040000fa
:04002800e6040000ea
:020000040000fa
:04002c00e6040000e6
:020000040000fa
:04003000e6040000e2
:020000040000fa
:04003400ee020000d8
:020000040000fa
:04003800e6040000da
:020000040000fa
:04003c00e6040000d6
:020000040000fa
:04004000e6040000d2
:020000040000fa
:04004400e6040000ce
:020000040000fa
:04004800e6040000ca
:020000040000fa
:04004c00e6040000c6
:020000040000fa
:04005000e6040000c2
:020000040000fa
:04005400e6040000be
:020000040000fa
:04005800e6040000ba
:020000040000fa
:04005c00cc020000d2
:020000040000fa
:04006000e6040000b2
:020000040000fa
:04006400e6040000ae
:020000040000fa
:04006800e6040000aa
:020000040000fa
:04006c00e6040000a6
:020000040000fa
:04007000e6040000a2
:020000040000fa
:04007400e60400009e
:020000040000fa
:04007800e60400009a
:020000040000fa
:04007c00e604000096
:020000040000fa
:04008000e604000092
:020000040000fa
:04008400e60400008e
:020000040000fa
:04008800e60400008a
:020000040000fa
:04008c00e604000086
:020000040000fa
:04009000e604000082
:020000040000fa
:04009400e60400007e
:020000040000fa
:04009800e60400007a
:020000040000fa
:04009c00e604000076
:020000040000fa
:0400a000e604000072
:020000040000fa
:0400a400e60400006e
:020000040000fa
:0400a800e60400006a
:020000040000fa
:0400ac00e604000066
:020000040000fa
:0400b000e604000062
:020000040000fa
:0400b400e60400005e
:020000040000fa
:0400b800e60400005a
:020000040000fa
:0400bc00e604000056
:020000040000fa
:0400c000e604000052
:020000040000fa
:0400c400e60400004e
:020000040000fa
:0400c800e60400004a
:020000040000fa
:0400cc00e604000046
:020000040000fa
:0400d000e604000042
:020000040000fa
:0400d400e60400003e
:020000040000fa
:0400d800e60400003a
:020000040000fa
:0400dc00e604000036
:020000040000fa
:0400e000e604000032
:020000040000fa
:0400e400e60400002e
:020000040000fa
:0400e800e60400002a
:020000040000fa
:0400ec00e604000026
:020000040000fa
:0400f000e604000022
:020000040000fa
:0400f400e60400001e
:020000040000fa
:0400f800e60400001a
:020000040000fa
:0400fc00e604000016
:020000040000fa
:04010000e604000011
:020000040000fa
:04010400e60400000d
:020000040000fa
:04010800e604000009
:020000040000fa
:04010c00e604000005
:020000040000fa
:04011000e604000001
:020000040000fa
:04011400e6040000fd
:020000040000fa
:04011800e6040000f9
:020000040000fa
:04011c00e6040000f5
:020000040000fa
:04012000e6040000f1
:020000040000fa
:04012400e6040000ed
:020000040000fa
:04012800e6040000e9
:020000040000fa
:04012c00e6040000e5
:020000040000fa
:04013000e6040000e1
:020000040000fa
:04013400e6040000dd
:020000040000fa
:04020800e604000008
:020000040000fa
:04020c00e604000004
:020000040000fa
:04021000e604000000
:020000040000fa
:04021400e6040000fc
:020000040000fa
:04021800e6040000f8
:020000040000fa
:04021c00e6040000f4
:020000040000fa
:04022000e6040000f0
:020000040000fa
:04022400e6040000ec
:020000040000fa
:04022800e6040000e8
:020000040000fa
:04022c00e6040000e4
:020000040000fa
:04023000e6040000e0
:020000040000fa
:04023400e6040000dc
:020000040000fa
:04023800e6040000d8
:020000040000fa
:04023c00e6040000d4
:020000040000fa
:04024000e6040000d0
:020000040000fa
:04024400e6040000cc
:020000040000fa
:04024800e6040000c8
:020000040000fa
:04024c00e6040000c4
:020000040000fa
:04025000e6040000c0
:020000040000fa
:04025400e6040000bc
:020000040000fa
:04025800e6040000b8
:020000040000fa
:04025c00e6040000b4
:020000040000fa
:04026000e6040000b0
:020000040000fa
:04026400e6040000ac
:020000040000fa
:04026800e6040000a8
:020000040000fa
:04026c00e6040000a4
:020000040000fa
:04027000e6040000a0
:020000040000fa
:04027400e60400009c
:020000040000fa
:04027800e604000098
:020000040000fa
:04027c00e604000094
:020000040000fa
:04028000e604000090
:020000040000fa
:04028400e60400008c
:020000040000fa
:04028800e604000088
:020000040000fa
:04028c00e604000084
:020000040000fa
:04029000e604000080
:020000040000fa
:04029400e60400007c
:020000040000fa
:04029800e604000078
:020000040000fa
:04029c00e604000074
:020000040000fa
:0402a000e604000070
:020000040000fa
:0402a400e60400006c
:020000040000fa
:0402a800e604000068
:020000040000fa
:0402ac00e604000064
:020000040000fa
:0402b000e604000060
:020000040000fa
:0402b400e60400005c
:020000040000fa
:0402b800e604000058
:020000040000fa
:0402bc00e604000054
:020000040000fa
:0402c000e604000050
:020000040000fa
:0402c400e60400004c
:020000040000fa
:0402c800e604000048
:020000040000fa
:0402cc00e604000044
:020000040000fa
:0402d000e604000040
:020000040000fa
:0402d400e60400003c
:020000040000fa
:0402d800e604000038
:020000040000fa
:0402dc00e604000034
:020000040000fa
:0402e000e604000030
:020000040000fa
:0402e400e60400002c
:020000040000fa
:0402e800e604000028
:020000040000fa
:0402ec00e604000024
:020000040000fa
:0402f000e604000020
:020000040000fa
:0402f400e60400001c
:020000040000fa
:0402f800e604000018
:020000040000fa
:0402fc00e604000014
:020000040000fa
:04030000e60400000f
:020000040000fa
:04030400e60400000b
:020000040000fa
:04030800e604000007
:020000040000fa
:04030c00e604000003
:020000040000fa
:04031000e6040000ff
:020000040000fa
:04031400e6040000fb
:020000040000fa
:04031800e6040000f7
:020000040000fa
:04031c00e6040000f3
:020000040000fa
:04032000e6040000ef
:020000040000fa
:04032400e6040000eb
:020000040000fa
:04032800e6040000e7
:020000040000fa
:04032c00e6040000e3
:020000040000fa
:04033000e6040000df
:020000040000fa
:04033400e6040000db
:020000040000fa
:10040000af3722000e7f22000e018800000000009e
:10041000000020000000e000020032000001200087
:1004200020028800140007006a0107000000e000b5
:1004300003003a00c0b4260001002000020037008b
:100440000000200001002000810f70000100320038
:1004500014000700000020000000e000020032004d
:100460000000020000000000125202000000000024
:100470000040da000000fe004440a9000000200017
:100480000000e0000300320000002000a00188000e
:100490004440a800000006008a1f78008b1f7800e7
:1004a0000000060091018800800478000000eb0045
:1004b0001a003700e284440032a0b4009905ba0063
:1004c000e284440032a0b4009906ba00e2844400f9
:1004d00032a0b4000006eb00476fde00fd07b2005b
:1004e000636ce10003003a00ebff07000000eb0043
:1004f0000a003700606ce10004003a00005deb0088
:100500008b05e900fdff3e00040037006168e10053
:10051000010032000086eb000b00070019c7ba008b
:100520001905ba000e04e00003003a000a00e000da
:10053000e0ff3a0000000600fe07b2009e018800be
:100540008a047800f5ff3700395dba008b05e900b1
:100550000c003200295dba008b05e900080032006a
:100560000c00e00003003a00e284440032a0b40032
:10057000f5ff370019ddba008b05e900faff3a00f4
:100580008904e800e184440032a0b40000000600c1
:100590008e36040000000000801f78003400f80050
:1005a00000002000a00188000000fa000018800070
:1005b000e092880010188000d092880020188000f7
:1005c000f09288002043a80085a0a9000080fa00ce
:1005d0003400f9004f007800004006003600f800b3
:1005e000809fbe00829fbe00849fbe00869fbe008b
:1005f0003400f80000002000a00188000200fa008a
:100600000021ef00009b2000104078000004e00073
:1006100005003a00309b2000104078000004e00004
:1006200001003a001d300700309b20001040780088
:100630000004e00001003200e33007008099200050
:10064000104078000004e00005003a00b099200056
:10065000104078000004e00001003a00eb3207008f
:10066000b0992000104078000004e0000100320042
:100670008d330700009b200010407800e14f5000b0
:1006800080003a00709a200010407800e14f50003e
:1006900021003a00709a20008040eb000148780069
:1006a000a021210010407800804078008087200041
:1006b00001487800908720008040eb0001487800d6
:1006c000a09a200011c0b30001487800309b2000a0
:1006d00021c0b3000148780040012000204e88006e
:1006e000009b20008040eb0001487800a021210001
:1006f00010407800e44f500004003200a021210097
:1007000010407800f14f400003003600a021210086
:100710008040eb0001487800709a2000104078007b
:100720008080fb00000f200080806000000a200015
:10073000808f500031003a00709a200010407800fd
:100740006f4060000040e900004f7800709a200080
:100750008040eb00014878001e00fb006300b900f8
:1007600000007800e120210061407800804078009e
:1007700080872000014878001e00fb006300b9005c
:10078000000078000000e800e120210061407800ce
:100790008040780090872000014878001e00fb0010
:1007a0006300b900000078000080e800e12021002b
:1007b0006140780080407800a087200001487800e0
:1007c000b08720008040eb0001487800a09a20000c
:1007d00031c0b30001487800309b200021c0b30035
:1007e0000148780040012000204e8800009b200036
:1007f0008040eb000148780022003700709a20000a
:1008000010407800ef4f40000f003a00a09a2000ff
:100810008040eb0001487800309b200011c0b300fd
:100820000148780040012000204e8800009b2000f5
:100830008040eb0001487800704e80000030a0003e
:10084000704e88000f003700709a2000104078002a
:10085000f04f40000b003a00a09a20008040eb00cf
:1008600001487800309b200011c0b3000148780097
:1008700040012000204e8800009b20008040eb00bb
:1008800001487800104e80000000e00003003200b4
:10089000104e80000000e900104e8800d021210099
:1008a000104078008040e900d02121000148780004
:1008b000e04d80000000e900e04d8800e04d800040
:1008c0000000e00038003a0040012000e04d8800c0
:1008d000009180000000e9000091880000918000f4
:1008e0000000e00021003a00a00f200000918800e5
:1008f000801680004d00de006140600000c0ea000c
:10090000614060000080fb00610060004d00dd0080
:100910008116800001d0a1000100700080168800bf
:10092000a0212100104078008080fb00000f2000f3
:10093000008060000000e0000c00320080168000a3
:100940004e00de006140600000c0ea0061406000cf
:100950000080fb00610060004e00dd008116800019
:1009600001e0a1000100700080168800f04d8000b9
:100970000000e900f04d8800f04d80000000e0002c
:1009800009003a00803e2000f04d8800409b200086
:10099000104078000004e00003003a00409b200073
:1009a00080c0eb00014878008460a9000080fa0054
:1009b0003400f9004f03be004f02be004f01be00dd
:1009c0004f00be003600f900004006000040da008b
:1009d0000000fe00000005008001780002003700e2
:1009e000b15978000201e9000200e000fcff3a0082
:0409f00000000600fd
:020000040000fa
:1009f4000000fa00e902a900e8c2a9000000000012
:100a0400e902a900e8c2a80000000000e8c2a900a9
:100a140000000000e902a900e8c2a80000000000ec
:100a2400e8c2a90000000000e902a900e8c2a80089
:100a340000000000e8c2a90000000000e902a900cb
:100a4400e8c2a80000000000e8c2a90000000000fd
:100a5400e902a900e8c2a80000000000e902a90018
:100a6400e8c2a9006000b800020007000080fa0094
:100a7400000006000400fa00008fbe00e902a9008d
:100a8400e8c2a90000000000e902a900e8c2a80029
:100a940000000000e8c2a90000000000e902a9006b
:100aa400e8c2a80000000000e8c2a900000000009d
:100ab400e902a900e8c2a80000000000e8c2a900f9
:100ac40000000000e902a900e8c2a800000000003c
:100ad400e902a900e8c2a9001e00780061006000d4
:100ae400004078000004e00003003200e8c2a900de
:100af400e902a80002003700e8c2a900e902a9003f
:100b040000000000e8c2a8001e01be002000200072
:100b140001002000020278000301780080017800bf
:100b24000100780003026200000061008000eb0015
:100b3400c000dd00000020000001be006120b800fc
:100b44000001710081817100e00f5100e08f5900b4
:100b540003003200e8c2a900e902a800020037003d
:100b6400e8c2a900e902a90000000000e8c2a80048
:100b74001e01be0040002000010020000202780097
:100b8400030178008001780001007800030262000c
:100b9400000061008000eb00c000dd0000002000c8
:100ba4000001be006120b800000171008181710064
:100bb400e00f5100e08f590003003200e8c2a900a1
:100bc400e902a80002003700e8c2a900e902a9006e
:100bd40000000000e8c2a8001e01be008000200042
:100be40001002000020278000301780080017800ef
:100bf4000100780003026200000061008000eb0045
:100c0400c000dd00000020000001be006120b8002b
:100c14000001710081817100e00f5100e08f5900e3
:100c240003003200e8c2a900e902a800020037006c
:100c3400e8c2a900e902a90000000000e8c2a80077
:100c44001e01be0000012000010020000202780005
:100c5400030178008001780001007800030262003b
:100c6400000061008000eb00c000dd0000002000f7
:100c74000001be006120b800000171008181710093
:100c8400e00f5100e08f590003003200e8c2a900d0
:100c9400e902a80002003700e8c2a900e902a9009d
:100ca40000000000e8c2a8000002200001002000ab
:100cb4001e01be0002027800030178008001780062
:100cc4000100780003026200000061008000eb0074
:100cd400c000dd00000020000001be006120b8005b
:100ce4000001710081817100e00f5100e08f590013
:100cf40003003200e8c2a900e902a800020037009c
:100d0400e8c2a900e902a90000000000e8c2a800a6
:100d140000042000010020001e01be000202780031
:100d2400030178008001780001007800030262006a
:100d3400000061008000eb00c000dd000000200026
:100d44000001be006120b8000001710081817100c2
:100d5400e00f5100e08f590003003200e8c2a900ff
:100d6400e902a80002003700e8c2a900e902a900cc
:100d740000000000e8c2a8000008200001002000d4
:100d84001e01be0002027800030178008001780091
:100d94000100780003026200000061008000eb00a3
:100da400c000dd00000020000001be006120b8008a
:100db4000001710081817100e00f5100e08f590042
:100dc40003003200e8c2a900e902a80002003700cb
:100dd400e8c2a900e902a90000000000e8c2a800d6
:100de40000102000010020001e01be000202780055
:100df400030178008001780001007800030262009a
:100e0400000061008000eb00c000dd000000200055
:100e14000001be006120b8000001710081817100f1
:100e2400e00f5100e08f590003003200e8c2a9002e
:100e3400e902a80002003700e8c2a900e902a900fb
:100e440000000000e8c2a8000020200001002000eb
:100e54001e01be00020278000301780080017800c0
:100e64000100780003026200000061008000eb00d2
:100e7400c000dd00000020000001be006120b800b9
:100e84000001710081817100e00f5100e08f590071
:100e940003003200e8c2a900e902a80002003700fa
:100ea400e8c2a900e902a90000000000e8c2a80005
:100eb40000402000010020001e01be000202780054
:100ec40003017800800178000100780003026200c9
:100ed400000061008000eb00c000dd000000200085
:100ee4000001be006120b800000171008181710021
:100ef400e00f5100e08f590003003200e8c2a9005e
:100f0400e902a80002003700e8c2a900e902a9002a
:100f140000000000e8c2a8000080200001002000ba
:100f24001e01be00020278000301780080017800ef
:100f34000100780003026200000061008000eb0001
:100f4400c000dd00000020000001be006120b800e8
:100f54000001710081817100e00f5100e08f5900a0
:100f640003003200e8c2a900e902a8000200370029
:100f7400e8c2a900e902a90000000000e8c2a80034
:100f840000002100010020001e01be0002027800c2
:100f940003017800800178000100780003026200f8
:100fa400000061008000eb00c000dd0000002000b4
:100fb4000001be006120b800000171008181710050
:100fc400e00f5100e08f590003003200e8c2a9008d
:100fd400e902a80002003700e8c2a900e902a9005a
:100fe40000000000e8c2a800000022000100200068
:100ff4001e01be000202780003017800800178001f
:101004000100780003026200000061008000eb0030
:10101400c000dd00000020000001be006120b80017
:101024000001710081817100e00f5100e08f5900cf
:1010340003003200e8c2a900e902a8000200370058
:10104400e8c2a900e902a90000000000e8c2a80063
:1010540000002400010020001e01be0002027800ee
:101064000301780080017800010078000302620027
:10107400000061008000eb00c000dd0000002000e3
:101084000001be006120b80000017100818171007f
:10109400e00f5100e08f590003003200e8c2a900bc
:1010a400e902a80002003700e8c2a900e902a90089
:1010b40000000000e8c2a800000028000100200091
:1010c4001e01be000202780003017800800178004e
:1010d4000100780003026200000061008000eb0060
:1010e400c000dd00000020000001be006120b80047
:1010f4000001710081817100e00f5100e08f5900ff
:1011040003003200e8c2a900e902a8000200370087
:10111400e8c2a900e902a90000000000e8c2a80092
:1011240000002000110020001e01be000202780011
:101134000301780080017800010078000302620056
:10114400000061008000eb00c000dd000000200012
:101154000001be006120b8000001710081817100ae
:10116400e00f5100e08f590003003200e8c2a900eb
:10117400e902a80002003700e8c2a900e902a900b8
:1011840000000000e8c2a8000000200021002000a8
:101194001e01be000202780003017800800178007d
:1011a4000100780003026200000061008000eb008f
:1011b400c000dd00000020000001be006120b80076
:1011c4000001710081817100e00f5100e08f59002e
:1011d40003003200e8c2a900e902a80002003700b7
:1011e400e8c2a900e902a90000000000e8c2a800c2
:1011f40000002000410020001e01be000202780011
:101204000301780080017800010078000302620085
:10121400000061008000eb00c000dd000000200041
:101224000001be006120b8000001710081817100dd
:10123400e00f5100e08f590003003200e8c2a9001a
:10124400e902a80002003700e8c2a900e902a900e7
:1012540000000000e8c2a800000020008100200077
:101264001e01be00020278000301780080017800ac
:101274000100780003026200000061008000eb00be
:10128400c000dd00000020000001be006120b800a5
:101294000001710081817100e00f5100e08f59005d
:1012a40003003200e8c2a900e902a80002003700e6
:1012b400e8c2a900e902a90000000000e8c2a800f1
:1012c40000002000010120001e01be00020278007f
:1012d40003017800800178000100780003026200b5
:1012e400000061008000eb00c000dd000000200071
:1012f4000001be006120b80000017100818171000d
:10130400e00f5100e08f590003003200e8c2a90049
:10131400e902a80002003700e8c2a900e902a90016
:1013240000000000e8c2a800000020000102200024
:101334001e01be00020278000301780080017800db
:101344000100780003026200000061008000eb00ed
:10135400c000dd00000020000001be006120b800d4
:101364000001710081817100e00f5100e08f59008c
:1013740003003200e8c2a900e902a8000200370015
:10138400e8c2a900e902a90000000000e8c2a80020
:1013940000002000010420001e01be0002027800ab
:1013a40003017800800178000100780003026200e4
:1013b400000061008000eb00c000dd0000002000a0
:1013c4000001be006120b80000017100818171003c
:1013d400e00f5100e08f590003003200e8c2a90079
:1013e400e902a80002003700e8c2a900e902a90046
:1013f40000000000e8c2a80000002000010820004e
:101404001e01be000202780003017800800178000a
:101414000100780003026200000061008000eb001c
:10142400c000dd00000020000001be006120b80003
:101434000001710081817100e00f5100e08f5900bb
:1014440003003200e8c2a900e902a8000200370044
:10145400e8c2a900e902a90000000000e8c2a8004f
:1014640000000000e902a900e8c2a9000080fa0017
:10147400000006000200fa000000eb00000f7800f4
:10148400e902a900e8c2a900e902a80000000000de
:10149400e8c2a80000000000e902a900e8c2a9000f
:1014a40000000000e8c2a80000000000e902a90052
:1014b400e8c2a90000000000e8c2a8000000000083
:1014c400e902a900e8c2a90000000000e8c2a800df
:1014d40000000000e902a900e8c2a9000000000021
:1014e40000000000e8c2a80000000000e8c2a90053
:1014f40000000000e8c2a80000000000e8c2a90043
:1015040000000000e8c2a80000000000e8c2a90032
:1015140000000000e8c2a80000000000e8c2a90022
:1015240000000000e8c2a80000000000e8c2a90012
:1015340000000000e8c2a80000000000e8c2a90002
:1015440000000000e8c2a80000000000e8c2a900f2
:1015540000000000e8c2a80000000000e8c2a900e2
:10156400cbc2a90030fb2f0020178800e8c2a800d6
:10157400000000000000000000000000311780009f
:1015840000082000008060000000e000010032003c
:101594001e00a000e8c2a90000000000e8c2a800e4
:1015a4003117800000082000008060000000e00087
:1015b400010032001e10a000e8c2a90000000000d3
:1015c400e8c2a800311780000008200000806000f5
:1015d4000000e000010032001e20a000e8c2a900c3
:1015e40000000000e8c2a8003117800000082000b5
:1015f400008060000000e000010032001e30a00006
:10160400e8c2a90000000000e8c2a8003117800069
:1016140000082000008060000000e00001003200ab
:101624001e40a000e8c2a90000000000e8c2a80013
:101634003117800000082000008060000000e000f6
:10164400010032001e50a000e8c2a9000000000002
:10165400e8c2a80031178000000820000080600064
:101664000000e000010032001e60a000e8c2a900f2
:1016740000000000e8c2a800311780000008200024
:10168400008060000000e000010032001e70a00035
:10169400e8c2a90000000000e8c2a80031178000d9
:1016a40000082000008060000000e000010032001b
:1016b4001e80a000e8c2a90000000000e8c2a80043
:1016c4003117800000082000008060000000e00066
:1016d400010032001e90a000e8c2a9000000000032
:1016e400e8c2a800311780000008200000806000d4
:1016f4000000e000010032001ea0a000e8c2a90022
:1017040000000000e8c2a800311780000008200093
:10171400008060000000e000010032001eb0a00064
:10172400e8c2a90000000000e8c2a8003117800048
:1017340000082000008060000000e000010032008a
:101744001ec0a000e8c2a90000000000e8c2a80072
:101754003117800000082000008060000000e000d5
:10176400010032001ed0a000e8c2a9000000000061
:10177400e8c2a80031178000000820000080600043
:101784000000e000010032001ee0a000e8c2a90051
:1017940000000000e8c2a800311780000008200003
:1017a400008060000000e000030032001e007800aa
:1017b40000f0a000000f7800e8c2a900cbc2a80086
:1017c40030eb2f00201788001e0078000080fa00fc
:1017d400000006000a00fa000000200001002800b2
:1017e400008fbe0000c2b300004f9800614e80001d
:1017f40000022000008060000000e00005003200cc
:101804000085240031d42400200798003107980073
:10181400040037001085240031d4240020079800e8
:1018240031079800e902a9001c003700e8c2a900aa
:101834002e019000be0190001e00be00020278003e
:10184400030178008001780001007800030262003f
:10185400000061008000eb00c000dd0000002000fb
:101864000001be006120b800000171008181710097
:10187400e00f5100e08f590002003200e902a80095
:1018840001003700e902a9001e00be008100d1005a
:101894000080d300008fbe00e8c2a8000e4890006c
:1018a4000080fb000000ea004f00de0000407800ea
:1018b4008e4890008140e900014f98000004e00048
:1018c400daff3a00e902a900e8c2a9000080fa00a0
:1018d400000006000000fa00cac2a900cae2a9007a
:1018e40000000000cb42a800800c20003d2407002b
:1018f400e1928000d0072000808f50000400360061
:10190400e1928000b0122000808f50000600360063
:10191400cb42a900a021210061cfb3000148780087
:1019240010c0b30025003700001920002d24070043
:10193400cae2a80000000000cac2a80040012000ba
:1019440028240700d192800080072000808f500057
:1019540004003600d1928000b0122000808f500025
:1019640008003600cac2a900cae2a90000000000ab
:10197400a021210071cfb3000148780010c0b3004a
:101984000e003700cac2a900cae2a9000000000084
:10199400c0032000132407008eff070080022000ec
:1019a40010240700cae2a80000000000cac2a80070
:1019b400000520000b2407000040eb000080fa0023
:1019c400000006000000fa00e8c2a900e902a9002c
:1019d400b000200003240700cac2a900cae2a9007b
:1019e40000000000b0002000fe230700cb42a90045
:1019f40040012000fb230700cae2a8000000000009
:101a04000080fa00000006000000fa000020200018
:101a14004100200017fc07006000b80015fc070017
:101a24000080fa00000006000200fa0000202000f6
:101a3400410020000ffc07006000b8000dfc070007
:101a440020b02300010820000afc070020c2230064
:101a54008108200007fc07006000b80005fc0700af
:101a640084fe0700000f78006000b80001fc070046
:101a74001e0078000000e000ecff35000080fa0052
:101a8400000006000000fa006000b800f9fb07003f
:101a94000020200041002000f6fb07006000b80091
:101aa400f4fb0700a04f200041022000f1fb0700d7
:101ab400a0b0230081082000eefb070000002000f6
:101ac40001022000ebfb0700001920008108200020
:101ad400e8fb07000000200001022000e5fb0700ee
:101ae40000802000b10b2000e2fb07006000b8007a
:101af400e0fb07006000b800defb070010762e0054
:101b0400810a2000dbfb07006000b800d9fb070056
:101b14006000b800d7fb0700c3ff07000080fa008d
:101b2400000006000a00fa003007980041079800f8
:101b34000000200001022000008fbe004e00900033
:101b44001001be00f0ff2f00010020000202780007
:101b5400030178008001780001007800030262002c
:101b6400000061008000eb00c000dd0000002000e8
:101b74000001be006120b800000171008181710084
:101b84003e0090000288be003e00900064024000c7
:101b94004e009000640040001001be0000002000d0
:101ba400f10f2000820278000301780080017800a0
:101bb4000100780083826200000061008000eb0075
:101bc400c000dd00000020000001be006128b80054
:101bd4000001710081817100028abe003e00900004
:101be400640140003e009000640040001000be000c
:101bf400c809dd004800de0000807100c808de006e
:101c04000089be003e009000640340003e00900046
:101c1400640040001002be004e0090001001be009f
:101c240000002000f10f20008203780003017800f7
:101c34008001780001007800838363000000610064
:101c44008000eb00c000dd00000020000001be00a9
:101c54006138b80000017100818171004018de0014
:101c6400010020000000720081807200008bbe0021
:101c74003e009000680240004e0090006400400066
:101c84001001be00f0ff2f00010020008202780046
:101c940003017800800178000100780083826200eb
:101ca400000061008000eb00c000dd0000002000a7
:101cb4000001be006128b80000017100818171003b
:101cc400028abe003e0090006c0240004e0090006c
:101cd400680040001001be00f0ff2f00010020004a
:101ce4008202780003017800800178000100780006
:101cf40083826200000061008000eb00c000dd0010
:101d0400000020000001be006128b800000171003d
:101d140081817100028abe003e0090007002400082
:101d24004e0090006c0040001001be000000200036
:101d3400f10f20008202780003017800800178000e
:101d44000100780083826200000061008000eb00e3
:101d5400c000dd00000020000001be006128b800c2
:101d64000001710081817100028abe003e00900072
:101d7400700140003e009000700040001000be0062
:101d8400480add004800de0000007200c808de00da
:101d94000089be003e009000700340003e009000a9
:101da400700040001002be004e0090006800400029
:101db4001001be0000002000f10f20008203780013
:101dc40003017800800178000100780083836300b8
:101dd400000061008000eb00c000dd000000200076
:101de4000001be006138b8000001710081817100fa
:101df4004018de00010020000000720081807200a3
:101e0400008bbe003e009000740240004e00900023
:101e14006c0040001001be00f0ff2f000100200004
:101e240082027800030178008001780001007800c4
:101e340083826200000061008000eb00c000dd00ce
:101e4400000020000001be006128b80000017100fc
:101e540081817100028abe00c035220010407800e2
:101e64000081fb003e0090001000be00800078005e
:101e74000201410000262100000041000108780011
:101e8400c0352200104078008040e800c0352200b0
:101e940001487800c0352200104078000081fb0022
:101ea4003e009000640040001000be0080007800f6
:101eb40002014100002621000000410001087800d1
:101ec400c0352200104078008040e800c035220070
:101ed40001487800c0352200104078000081fb00e2
:101ee4003e009000680040001000be0080007800b2
:101ef4000201410000262100000041000108780091
:101f0400c0352200104078008040e800c03522002f
:101f140001487800c0352200104078000081fb00a1
:101f24003e0090006c0040001000be00800078006d
:101f34000201410000262100000041000108780050
:101f4400c0352200104078008040e800c0352200ef
:101f540001487800c0352200104078000081fb0061
:101f64003e009000700040001000be008000780029
:101f74000201410000262100000041000108780010
:101f8400c0352200104078008040e800c0352200af
:101f940001487800c0352200104078000081fb0021
:101fa4003e009000740040001000be0080007800e5
:101fb40002014100002621000000410001087800d0
:101fc400c0352200104078008040e800c03522006f
:101fd40001487800614e800000022000008060000b
:101fe4000000e0002c003a000040eb00404798005d
:101ff400260037004e4090000080fb004200dd00c8
:10200400be009000008240004e4090000080fb0023
:102014004200dd00be009000008040001001be00c0
:102024004418dd00cc10de00810070004410dd0097
:10203400008abe004e4090000080fb004200dd009c
:10204400be009000008140004e4090000080fb00e4
:102054004200dd00be009000008040001000be0081
:102064003e027000ae8270000400be000089be0013
:102074004e4090000040e8004047980012002000c5
:10208400030020001e0f41005e9749004e4090005f
:10209400e54f5000d7ff36000080fa00000006002c
:1020a4001000fa0060079800710798006000b800fb
:1020b40020079800310798006000b8004007980096
:1020c4005107980000c1b300004f78000040eb00b6
:1020d400104798000040eb00204798004afe070094
:1020e400714e800000082000008060000000e000c5
:1020f40007003a00a0012000410220005dfa070019
:10210400a0b02300810820005afa07000600370017
:10211400000120004102200056fa070000b023000d
:102124008108200053fa0700714e80000008200047
:10213400008060000000e00005003a00000020007c
:10214400010220002007980031079800040037009e
:102154000080200001022000200798003107980029
:10216400fe009000c11a8900224980003349800092
:1021740000002000f10f2000020278000301780023
:102184008001780001007800030262000000610011
:102194008000eb00c000dd00000020000001be0054
:1021a4006120b8000001710081817100220798004c
:1021b400330798002e009000be0090004409dd0013
:1021c4004c00de0000007100cc08de0020079800ff
:1021d400310798002e009000be0090000150a0002e
:1021e4002007980031079800224980003349800075
:1021f400f0ff2f00010020000202780003017800a4
:102204008001780001007800030262000000610090
:102214008000eb00c000dd00000020000001be00d3
:102224006120b800000171008181710042079800ab
:10223400530798004e019000de0190004418dd0021
:10224400cc10de00810070004410dd0040079800cf
:10225400510798004e019000de01900070002000ac
:102264000102200000007100818071004007980085
:10227400510798002e009000be009000fdf9070061
:102284000019200081082000faf907004e00900090
:10229400de009000f7f90700c03522008040eb0013
:1022a400014878005a0037001e4090000080fb006f
:1022b4004200dd00ee0090000080400080007800c5
:1022c400601f210017fe0700b08f8000c18f8000bf
:1022d400e8f90700d08f8000e18f8000e5f907005e
:1022e400f08f800001908000e2f9070010908000d8
:1022f40021908000dff90700309080004190800039
:10230400dcf907005090800061908000d9f9070043
:1023140000302000b10e2000d6f907006000b8009c
:10232400d4f9070060bb2000b10b2000d1f90700ed
:102334006000b800cff907006000b800cdf90700cd
:1023440060bb2d00b10b2000caf907006000b80083
:10235400c8f907006000b800c6f9070060bb2e008a
:10236400b10b2000c3f907006000b800c1f90700f1
:102374006000b800bff9070060bb2100b10b20006a
:10238400bcf907006000b800baf907006000b800a3
:10239400b8f9070060bb2000b10b2000b5f90700b5
:1023a4006000b800b3f907006000b800b1f9070095
:1023b40060bb2d00b10b2000aef907006000b8002f
:1023c400acf907006000b800aaf9070060bb2e0052
:1023d400b10b2000a7f907006000b800a5f90700b9
:1023e4006000b800a3f9070060bb2100b10b200016
:1023f400a0f907006000b8009ef907006000b8006b
:102404009cf907001e40900064404000104798006b
:102414001e80fb000000ea004f00de000040780050
:102424001e4fe9000004e0009fff3a0010762e00e2
:10243400810a20008ff907006000b8008df90700b9
:102444006000b8008bf9070077fd07006efd0700f8
:102454000080fa00000006000c00fa004007980013
:10246400510798005e0090001001be00f0ff2f009d
:10247400f10f2000800f5100818f59002700320096
:102484004e0090000080e800100078006101b80060
:10249400f00f200001002000020278000301780000
:1024a40080017800010078000302620000006100ee
:1024b4008000eb00c000dd00000020000001be0031
:1024c4006120b8000001710081817100028fbe009b
:1024d4001e00be00c000dd0000002000008fbe0012
:1024e4001e01be004e009000100078008000eb003a
:1024f4000000710081807100008fbe001e01be00cb
:102504005e0090001000be00800f5100818f5900c2
:102514000200320010c0b3003a0037005e009000a1
:10252400640040001001be00f0ff2f00f10f2000f6
:10253400800f5100818f5900310032004e0090000d
:102544000080e800100078006101b80000f02f005e
:102554000100200002027800030178008001780065
:102564000100780003026200000061008000eb00bb
:10257400c000dd00000020000001be006120b800a2
:1025840000017100818171002207980033079800cf
:102594002e019000be0190004818dd00c810de0036
:1025a400810070004810dd00200798003107980072
:1025b4002e019000be0190004e0090006400400087
:1025c400100078008000eb00000071008180710031
:1025d40020079800310798002e019000be0190005a
:1025e4005e009000640040001000be00800f5100a7
:1025f400818f59000200320010c0b300010037007f
:102604000040eb000080fa00000006001400fa000d
:10261400100f98006000b800100798002107980078
:102624006000b80030079800410798000040eb00b4
:10263400204f98000040eb00004f7800f2fc0700a8
:1026440000002000010220001007980021079800d4
:10265400224980003349800000002000f10f20004f
:1026640002027800030178008001780001007800fc
:1026740003026200000061008000eb00c000dd0086
:10268400000020000001be006120b80000017100bc
:102694008181710012079800230798001e009000a2
:1026a400ae0090004409dd004c00de000000710023
:1026b400cc08de0010079800210798001e00900047
:1026c400ae0090000150a000100798002107980068
:1026d4002249800033498000f0ff2f0001002000d0
:1026e400020278000301780080017800010078007c
:1026f40003026200000061008000eb00c000dd0006
:10270400000020000001be006120b800000171003b
:102714008181710032079800430798003e019000c0
:10272400ce0190004418dd00cc10de008100700062
:102734004410dd0030079800410798003e019000e6
:10274400ce01900060002000010220000000710012
:102754008180710030079800410798001e009000a6
:10276400ae009000c3f80700001920008108200083
:10277400c0f807003e009000ce009000bdf80700ae
:102784007084270001022000baf807006000b80036
:10279400b8f80700d03522008040eb0001487800eb
:1027a4000d003700d0352200104078000080fb0077
:1027b4008000400080262200008040008080eb00e2
:1027c40001087800d0352200104078008040e800ed
:1027d400d035220001487800d0352200904078009e
:1027e40030c6b30080cf5000eeff3600d035220053
:1027f4008040eb0001487800b700370060b9200042
:10280400a10b20009bf807006000b80099f80700ae
:102814006000b80097f8070016fb070060079800ef
:102824006000b80093f8070060bb2d00a10b2000e6
:1028340090f807006000b8008ef807006000b80048
:102844008cf80700603d2d00a10b200089f80700db
:102854006000b80087f807006000b80085f807003a
:1028640004fb0700700798006000b80081f80700b7
:1028740060bb2000a10b20007ef807006000b800b8
:102884007cf807006000b8007af80700f9fa07003e
:10289400000f98006000b80076f80700c01a8100a5
:1028a4000000e00006003a00d01a81000000e000b9
:1028b40003003a00604e80000010a000604e8800c3
:1028c400604e8000620060000000e0007e00320084
:1028d400d0352200104078000080fb00ee0090000c
:1028e4000001400080262200000041000108780019
:1028f400d0352200104078000080fb0080004000aa
:10290400002621000080400010007800e10f400004
:1029140014003200d0352200104078000080fb0003
:102924008000400080262200008040009000780053
:10293400d0352200104078000080fb0000014000e8
:10294400002621000000410010007800808f500014
:10295400040032000000000000000000000000003d
:1029640000000000d0352200104078008040e800cc
:10297400d035220001487800d0352200104078007c
:102984000080fb00fe009000000140008026220031
:102994000000410001087800d03522001040780082
:1029a4000080fb00800040000026210000804000e1
:1029b40010007800e10f400014003200d0352200ee
:1029c400104078000080fb00800040008026220038
:1029d4000080400090007800d0352200104078003c
:1029e4000080fb000001400000262100000041009f
:1029f40010007800808f50000400320000000000b6
:102a0400000000000000000000000000d03522009b
:102a1400104078008040e800d0352200014878005a
:102a2400d0352200104078000080fb008e08900012
:102a340000014000802622000000410001087800c7
:102a4400d0352200104078000080fb008000400058
:102a5400002621000080400010007800e10f4000b3
:102a640014003200d0352200104078000080fb00b2
:102a74008000400080262200008040009000780002
:102a8400d0352200104078000080fb000001400097
:102a9400002621000000410010007800808f5000c3
:102aa40004003200000000000000000000000000ec
:102ab40000000000d0352200104078008040e8007b
:102ac400d035220001487800cffb07002e48900043
:102ad4000040e800204f98002e489000ff4f50001f
:102ae40046ff36001e4078000080fa000000060011
:102af4001a00fa00881f780020c0b300004f980025
:102b0400b021210010407800ed4f500046003a00fb
:102b1400001b8100100f9800101b8100200f9800eb
:102b2400201b8100300f9800301b8100400f98005b
:102b3400b2928000c3928000f0ff2f0001002000b9
:102b44000202780083017800000178000100780017
:102b540002016200008061008000eb00c000dd0023
:102b640000002000008fbe006110b8001e1f70001e
:102b74001e9770001e01be004418dd00cc10de005c
:102b8400810070004410dd00008fbe007000200042
:102b9400010220001e1f70001e977000b292800078
:102ba400c392800000002000f10f20000202780090
:102bb40003017800800178000100780003026200bc
:102bc400000061008000eb00c000dd000000200078
:102bd4000001be006120b800000171008181710014
:102be40022079800330798002e009000be00900042
:102bf4004409dd004c00de0000007100cc08de005a
:102c040020079800310798002e009000be00900025
:102c14000150a000200798003107980040c0b3007d
:102c2400004f980089003700b0212100104078003f
:102c3400ec4f500044003a00001b8100100f980034
:102c4400101b8100200f9800201b8100300f98007a
:102c540092928000a3928000f0ff2f0001002000d8
:102c640002027800830178000001780001007800f6
:102c740002016200008061008000eb00c000dd0002
:102c840000002000008fbe006110b8001e1f7000fd
:102c94001e9770001e01be004418dd00cc10de003b
:102ca400810070004410dd00008fbe007000200021
:102cb400010220001e1f70001e9770009292800077
:102cc400a392800000002000f10f2000020278008f
:102cd400030178008001780001007800030262009b
:102ce400000061008000eb00c000dd000000200057
:102cf4000001be006120b8000001710081817100f3
:102d040022079800330798002e009000be00900020
:102d1400c409dd004c00de0000807100cc08de0038
:102d240020079800310798002e009000be00900004
:102d34000150a000200798003107980030c0b3006c
:102d4400004f980041003700001b8100100f9800cd
:102d5400101b8100200f98007292800083928000e3
:102d6400f0ff2f00010020000202780083017800a8
:102d74000001780001007800020162000080610017
:102d84008000eb00c000dd0000002000008fbe00ca
:102d94006110b8001e1f70001e9770001e01be0057
:102da4004418dd00cc10de00810070004410dd000a
:102db400008fbe0070002000010220001e1f700062
:102dc4001e977000729280008392800000002000a1
:102dd400f10f2000020278000301780080017800de
:102de4000100780003026200000061008000eb0033
:102df400c000dd00000020000001be006120b8001a
:102e04000001710081817100220798003307980046
:102e14002e009000be0090004409dd004c00de004e
:102e240000007100cc08de002007980031079800ec
:102e34002e009000be0090000150a00020079800d2
:102e44003107980020c0b300004f980000ff2f0006
:102e5400f10f20001e01be00020278000301780079
:102e64008001780001007800030262000000610024
:102e74008000eb00c000dd00000020000001be0067
:102e84006120b8000001710081817100028fbe00d1
:102e94001e01be00661f710003177800dafa0700ee
:102ea400d9fa07002e009000be009000f1f607004a
:102eb4000019200081082000eef607001e00be0065
:102ec400ecf607007084270001022000e9f60700f1
:102ed4006000b800e7f607001000370060bb200070
:102ee400a10b2000e3f607006000b800e1f607003c
:102ef4006000b800dff607000e4890000084fb0075
:102f04005cf907008800440081004700ea80400023
:102f1400800878006000b800d6f607000e489000dc
:102f24000080fb000000ea004f00de000040780053
:102f34008e4890008140e900014f98000004e000b1
:102f4400e6ff3a00b0fa0700b021210010407800f3
:102f5400ed4f50000e003a005e0090000000e000cb
:102f640009003a006e0090000000e00006003a00fc
:102f74007e0090000000e00003003a000e0890007c
:102f84000000e0001900320010c0b3001800370040
:102f9400b021210010407800ec4f50000b003a00a3
:102fa4005e0090000000e00006003a006e00900011
:102fb4000000e00003003a007e0090000000e00002
:102fc4000a00320010c0b300090037005e00900010
:102fd4000000e00003003a006e0090000000e000f2
:102fe4000200320010c0b300010037000040eb00c3
:102ff4004f0478000080fa00000006001e00fa006a
:10300400881f780020c0b300004f9800b021210031
:1030140010407800ed4f500046003a00001b81003c
:10302400300f9800101b8100400f9800201b810076
:10303400500f9800301b8100600f9800b2928000fe
:10304400c3928000f0ff2f000100200002027800ec
:103054008301780000017800010078000201620019
:10306400008061008000eb00c000dd000000200053
:10307400008fbe006110b8001e1f70001e97700004
:103084001e01be004418dd00cc10de00810070007b
:103094004410dd00008fbe007000200001022000fb
:1030a4001e1f70001e977000b2928000c3928000b1
:1030b40000002000f10f20000202780003017800d4
:1030c40080017800010078000302620000006100c2
:1030d4008000eb00c000dd00000020000001be0005
:1030e4006120b800000171008181710022079800fd
:1030f400330798002e009000be0090004409dd00c4
:103104004c00de0000007100cc08de0020079800af
:10311400310798002e009000be0090000150a000de
:10312400200798003107980040c0b300004f980072
:1031340089003700b021210010407800ec4f500086
:1031440044003a00001b8100300f9800101b8100de
:10315400400f9800201b8100500f9800929280002d
:10316400a3928000f0ff2f000100200002027800eb
:1031740083017800000178000100780002016200f8
:10318400008061008000eb00c000dd000000200032
:10319400008fbe006110b8001e1f70001e977000e3
:1031a4001e01be004418dd00cc10de00810070005a
:1031b4004410dd00008fbe007000200001022000da
:1031c4001e1f70001e97700092928000a3928000d0
:1031d40000002000f10f20000202780003017800b3
:1031e40080017800010078000302620000006100a1
:1031f4008000eb00c000dd00000020000001be00e4
:103204006120b800000171008181710022079800db
:10321400330798002e009000be009000c409dd0022
:103224004c00de0000807100cc08de00200798000e
:10323400310798002e009000be0090000150a000bd
:10324400200798003107980030c0b300004f980061
:1032540041003700001b8100300f9800101b8100d3
:10326400400f98007292800083928000f0ff2f003c
:103274000100200002027800830178000001780038
:103284000100780002016200008061008000eb0010
:10329400c000dd0000002000008fbe006110b800f7
:1032a4001e1f70001e9770001e01be004418dd0032
:1032b400cc10de00810070004410dd00008fbe00e1
:1032c40070002000010220001e1f70001e97700075
:1032d400729280008392800000002000f10f200091
:1032e4000202780003017800800178000100780070
:1032f40003026200000061008000eb00c000dd00fa
:10330400000020000001be006120b800000171002f
:103314008181710022079800330798002e009000e5
:10332400be0090004409dd004c00de000000710086
:10333400cc08de0020079800310798002e0090008a
:10334400be0090000150a0002007980031079800ab
:1033540020c0b300004f9800abf907001e00be0068
:10336400c4f50700a003200041022000c1f50700b6
:10337400a0b0230081082000bef507002e009000b5
:10338400be009000bbf50700001920008108200052
:10339400b8f507002e0037000e4890000080fb00af
:1033a40000004000f6004700008040001000780054
:1033b4008000eb0050079800610798005e019000c0
:1033c400ee0190004418dd00cc10de008100700096
:1033d4004410dd0050079800610798005e019000da
:1033e400ee01900060002000010220000000710046
:1033f4008180710050079800610798005e0090007a
:10340400ee0090009bf507006000b80099f50700f6
:1034140060b82100b10b200096f507006000b800e9
:1034240094f507006000b80092f5070010762e00ae
:10343400810a20008ff507006000b8008df50700b1
:103444006000b8008bf5070077f907006ef90700f4
:103454000e4890000080fb000000ea004f00de00f0
:10346400004078008e4890008140e900014f9800a8
:103474000004e000c8ff3a0000ff2f00f10f200015
:103484001e01be000202780003017800800178006a
:103494000100780003026200000061008000eb007c
:1034a400c000dd00000020000001be006120b80063
:1034b4000001710081817100028fbe001e01be00f7
:1034c400661f710003177800b021210010407800b6
:1034d400ed4f500003003a0040c0b300004f980085
:1034e40009003700b021210010407800ec4f500053
:1034f40003003a0030c0b300004f980002003700c8
:1035040020c0b300004f98003ff907002e00900040
:10351400be00900057f50700001920008108200024
:1035240054f507001e00be0052f507007084270002
:10353400010220004ff507006000b8004df50700b8
:103544001000370060bb2000a10b200049f50700e4
:103554006000b80047f507006000b80045f50700b3
:103564000e4890000084fb00c2f707008800440066
:1035740081004700ee804000800878006000b800b9
:103584003cf507000e4890000080fb000000ea00b4
:103594004f00de00004078008e4890008140e90032
:1035a400014f98000004e000e6ff3a0016f9070016
:1035b400b021210010407800ed4f500018003a006f
:1035c400fe0090003e089000808f50000200320000
:1035d40010c0b300350037008e0890004e089000ec
:1035e400808f50000200320010c0b3002f0037005b
:1035f4009e0890005e089000808f50000200320008
:1036040010c0b30029003700ae0890006e08900087
:10361400808f50002400320010c0b3002300370014
:10362400b021210010407800ec4f500012003a0005
:10363400fe0090003e089000808f5000020032008f
:1036440010c0b300190037008e0890004e08900097
:10365400808f50000200320010c0b3001300370006
:103664009e0890005e089000808f50000e0032008b
:1036740010c0b3000d003700fe0090003e0890001b
:10368400808f50000200320010c0b30007003700e2
:103694008e0890004e089000808f50000200320087
:1036a40010c0b300010037000040eb004f04780065
:1036b4000080fa00000006000600fa0010079800d7
:1036c40021079800614e8000000220000080600005
:1036d4000000e00005003200ae0090001e009000e3
:1036e40082090700004f780006003700ae00900002
:1036f4001e0090006afa07002e009000c3fb07002a
:10370400004f7800604f80000000e800604f8800a0
:103714001e4078000080fa00000006000200fa0053
:103724000040eb00004f780008003700c11b810007
:103734001e80fb004200dd0000814000f0ff2f00ee
:10374400f10f20000089be001e4fe800f0c3b30053
:103754009e40780080cf5000f4ff36000080fa00cd
:10376400000006000a00fa000040eb00004f780059
:10377400409d2000104078000004e000c7003a009b
:10378400904e80008000eb00d0918800e191880089
:10379400d2918000e3918000701b8100811b810025
:1037a4000000710081807100d0918800e19188004f
:1037b400d0918000e19180008100d1000080d3008d
:1037c400d0918800e1918800d2918000e39180003b
:1037d4005092800061928000800f5100818f5900c7
:1037e40006003a0022002000519d200000362200ed
:1037f40078f407001e407800f9003700d291800069
:10380400e39180007092800081928000800f5100cb
:10381400818f590006003a0022002000519d2000ab
:10382400203622006bf407001e407800ec003700bd
:1038340090928000a1928000e00f5000e08f580029
:103844000d003200d2918000e391800090928000bc
:10385400a1928000800f5100818f590006003a0028
:1038640022002000519d20004036220059f4070018
:103874001e407800da003700b0928000c1928000c8
:10388400e00f5000e08f58000d003200d29180000c
:10389400e3918000b0928000c1928000800f5100bb
:1038a400818f590006003a0022002000519d20001b
:1038b4006036220047f407001e407800c800370035
:1038c400d0918000e19180004909dd004700de00cd
:1038d40000007100c708de0010079800d091800036
:1038e400e19180008100d1000080d3000040780085
:1038f400f043b20040479800009d2000104078003b
:103904000080fb004200de0050479800901b8100bd
:103914006101b8004718dd00c910de0081007000a5
:103924004710dd002049880031498800614e80003d
:1039340000042000008060000000e0000500320068
:1039440020498000314980000170a000204988008e
:1039540031498800901b81009e009000808f5000a8
:1039640009003200901b8100c700dd00c01b8100ec
:1039740051ff07000004e0000200320010cab30047
:10398400004f780065ff07009e009000911b89009e
:103994005e4090008080fb004e4090000080fb0061
:1039a4000204200000005100808f50002e003400db
:1039b4004e4090000080fb00010420000080500075
:1039c4004200dd0080007800c21b81004e40900060
:1039d4000080fb004200dd0000004100010178008e
:1039e400519d2000fbf30700901b8100c700dd0000
:1039f400c01b810030ff07000004e0000200320019
:103a040010cbb300004f780044ff0700901b8100e7
:103a14000000e800901b8900009d20001040780001
:103a24008080fb004e4090000080fb000004b10049
:103a34004200dd0000804000000178004e4090000c
:103a44000080fb0001042000008050004200dd00e3
:103a540080007800509d200080804000c01b8100c1
:103a6400dcf307000b003700009d200010407800b5
:103a74008080fb00c21b81004e4090000080fb0050
:103a84004200dd000000410001017800519d20004a
:103a9400d0f307001e40780051003700409d2000fd
:103aa400104078000080fb00e10f5000410032001c
:103ab400e40f500049003a00509d20001040780067
:103ac4000080fb00300798003e0090006101b800c0
:103ad4004818dd00c810de00810070004810dd00c9
:103ae400701b8900811b8900609d200010407800b4
:103af4000080fb00400798004e0090006101b80070
:103b0400701b8100811b81000000710081807100a5
:103b1400701b8900811b8900701b8100811b81003f
:103b2400c000dd0000002000701b8900811b89009b
:103b3400d2918000e3918000f0ff2f00f10f20006c
:103b44000202780003017800800178000100780007
:103b540003026200000061008000eb00c000dd0091
:103b6400000020000001be006120b80000017100c7
:103b740081817100d2918800e3918800d291800004
:103b8400e3918000701b8100811b810000007100a3
:103b940081807100d0918800e1918800701b8100c0
:103ba400811b8100401b8900511b89001e40780045
:103bb4000b003700901b8100c700dd00c01b810093
:103bc400bdfe07000004e0000200320010ccb30088
:103bd40003003700a0cab300010037001e4078007c
:103be4000080fa00000006000400fa000040eb0028
:103bf400004f78000040eb00104798006000b800c8
:103c04003091880041918800a021210011c0b300a7
:103c140001487800e8c2a900e902a900e842a90025
:103c2400e862a800cbc2a800ca62a900ca82a9009f
:103c3400caa2a900ca42a80000000000cb22a90021
:103c4400cb02a800000000000040eb0010479800e1
:103c54000000eb00604f880000000000000000003e
:103c6400000000001bf70700104798001e4090005a
:103c74000004e00093003a005df307009cfb07009a
:103c84000040eb0010479800604e80000010a10037
:103c9400604e88007bf7070000192000511b0700c5
:103ca4009efe0700f09180000192800090918800b0
:103cb400a1918800a021210021c0b300014878000f
:103cc40090918000a191800042ff2000762407009b
:103cd40090918000a19180000020b0000180b0008c
:103ce40090918800a19188000000eb001091880059
:103cf4001e4078000004e00051003a00109180005a
:103d040041ff2000e1407800a0c3b30080cf500001
:103d14004d003a00109180000000e80010918800e6
:103d24004a0037001091800041ff2000e1407800f4
:103d3400a0c3b30080cf5000170032001e407800ab
:103d44000080fb001191800042ff200062c17800d6
:103d5400419f2000827078001e4078000040e800f7
:103d6400004f7800109180000000e8001091880056
:103d74001091800041ff2000e1407800a0c3b3000f
:103d840080cf50000400320011918000f01f200009
:103d9400808f5000e9ff36001091800041ff200021
:103da400e1407800a0c3b30080cf500027003a0060
:103db400109180000000e800109188000040eb00a2
:103dc400004f7800409f20002416070065fe07007e
:103dd400104798001e4090000004e0001b003200d1
:103de4009e409000a0cab30080cf50000e003a005d
:103df400a021210031c0b300014878007ffc0700f6
:103e04000004e00004003a00a021210041c0b300f6
:103e1400014878000d003700a021210041cfb300f4
:103e24000148780009003700a021210031cfb300f8
:103e34000148780010c0b300104798000300370011
:103e4400000000000100370000000000409d200039
:103e540010407800e14f50000b00320011918000b7
:103e6400f01f2000808f500007003e001e4090008d
:103e7400e14f500004003200704e80006800600082
:103e84000000e000a7ff3200409d200010407800b1
:103e9400e14f50000b0032001e409000e14f5000f3
:103ea40008003200704e8000680060000000e000ee
:103eb40004003a00a021210010407800e34f500094
:103ec4007fff3600704e80000030a100704e8800e5
:103ed400bcf60700cbc2a900e842a900e862a90029
:103ee400409d20008040eb00014878000080fa00eb
:103ef400000006000200fa000000eb00000f78004a
:103f0400e8c2a80000000000e8c2a9003117800040
:103f140000082000008060000000e0000300320080
:103f24001e00780000f0a000000f7800e8c2a8008e
:103f340000000000e8c2a90031178000000820003a
:103f4400008060000000e000010032001ee0a000dc
:103f5400e8c2a80000000000e8c2a90031178000f0
:103f640000082000008060000000e0000100320032
:103f74001ed0a000e8c2a80000000000e8c2a9000a
:103f84003117800000082000008060000000e0007d
:103f9400010032001ec0a000e8c2a800000000001a
:103fa400e8c2a900311780000008200000806000ea
:103fb4000000e000010032001eb0a000e8c2a8002a
:103fc40000000000e8c2a9003117800000082000aa
:103fd400008060000000e000010032001ea0a0008c
:103fe400e8c2a80000000000e8c2a9003117800060
:103ff40000082000008060000000e00001003200a2
:104004001e90a000e8c2a80000000000e8c2a900b9
:104014003117800000082000008060000000e000ec
:10402400010032001e80a000e8c2a80000000000c9
:10403400e8c2a90031178000000820000080600059
:104044000000e000010032001e70a000e8c2a800d9
:1040540000000000e8c2a900311780000008200019
:10406400008060000000e000010032001e60a0003b
:10407400e8c2a80000000000e8c2a90031178000cf
:1040840000082000008060000000e0000100320011
:104094001e50a000e8c2a80000000000e8c2a90069
:1040a4003117800000082000008060000000e0005c
:1040b400010032001e40a000e8c2a8000000000079
:1040c400e8c2a900311780000008200000806000c9
:1040d4000000e000010032001e30a000e8c2a80089
:1040e40000000000e8c2a900311780000008200089
:1040f400008060000000e000010032001e20a000eb
:10410400e8c2a80000000000e8c2a900311780003e
:1041140000082000008060000000e0000100320080
:104124001e10a000e8c2a80000000000e8c2a90018
:104134003117800000082000008060000000e000cb
:10414400010032001e00a000e8c2a9001e00780091
:104154000080fa00000006000200fa00000f780058
:10416400e8c2a8001e0078000000e00003003d0043
:10417400e902a800e8c2a80002003700e902a90089
:10418400e8c2a8000000000000000000e8c2a90086
:10419400000024001e0060000000e0000300320064
:1041a400e902a800e8c2a80002003700e902a90059
:1041b400e8c2a8000000000000000000e8c2a90056
:1041c400000022001e0060000000e0000300320036
:1041d400e902a800e8c2a80002003700e902a90029
:1041e400e8c2a8000000000000000000e8c2a90026
:1041f400000021001e0060000000e0000300320007
:10420400e902a800e8c2a80002003700e902a900f8
:10421400e8c2a8000000000000000000e8c2a900f5
:10422400008020001e0060000000e0000300320057
:10423400e902a800e8c2a80002003700e902a900c8
:10424400e8c2a8000000000000000000e8c2a900c5
:10425400004020001e0060000000e0000300320067
:10426400e902a800e8c2a80002003700e902a90098
:10427400e8c2a8000000000000000000e8c2a90095
:10428400002020001e0060000000e0000300320057
:10429400e902a800e8c2a80002003700e902a90068
:1042a400e8c2a8000000000000000000e8c2a90065
:1042b400001020001e0060000000e0000300320037
:1042c400e902a800e8c2a80002003700e902a90038
:1042d400e8c2a8000000000000000000e8c2a90035
:1042e400000820001e0060000000e000030032000f
:1042f400e902a800e8c2a80002003700e902a90008
:10430400e8c2a8000000000000000000e8c2a90004
:10431400000420001e0060000000e00003003200e2
:10432400e902a800e8c2a80002003700e902a900d7
:10433400e8c2a8000000000000000000e8c2a900d4
:10434400000220001e0060000000e00003003200b4
:10435400e902a800e8c2a80002003700e902a900a7
:10436400e8c2a8000000000000000000e8c2a900a4
:104374009e007800708060000000e00003003200be
:10438400e902a800e8c2a80002003700e902a90077
:10439400e8c2a8000000000000000000e8c2a90074
:1043a4009e007800688060000000e0000300320096
:1043b400e902a800e8c2a80002003700e902a90047
:1043c400e8c2a8000000000000000000e8c2a90044
:1043d4009e007800648060000000e000030032006a
:1043e400e902a800e8c2a80002003700e902a90017
:1043f400e8c2a8000000000000000000e8c2a90014
:104404009e007800628060000000e000030032003b
:10441400e902a800e8c2a80002003700e902a900e6
:10442400e8c2a8000000000000000000e8c2a900e3
:104434001e00780061006000004078000004e00085
:1044440003003200e902a800e8c2a8000200370015
:10445400e902a900e8c2a800000000000000000072
:10446400e8c2a9000080fa00000006000600fa0075
:104474000000eb00000f78000000eb00100798002c
:104484000040eb00404798006000b80079f1070055
:10449400002020004100200076f107006000b800f1
:1044a40074f10700008020000102200071f1070070
:1044b40000192000810820006ef1070000be2500cd
:1044c400010220006bf10700108427000102200084
:1044d40068f107006000b80066f107000089200059
:1044e400a10b200063f107006000b80061f1070030
:1044f4006000b8005ff10700def30700000f7800ea
:104504006000b8005bf1070000862500010220006e
:1045140058f10700108427000102200055f107001c
:104524006000b80053f1070000892000a10b2000af
:1045340050f107006000b8004ef107006000b800b9
:104544004cf10700cbf30700100798006000b80097
:1045540048f107009e007800e0022000808f5000a0
:1045640007003a009e009000900a2000808f5000bf
:1045740003003a000040eb00404798000200370077
:1045840010c0b300404798004e4090000080fa00ed
:10459400000006000800fa000040eb0040479800c5
:1045a4000040eb00504798005cfc0700f29180004b
:1045b40003928000028fbe0000002000010320004f
:1045c400f091880001928800f091800001928000af
:1045d40090918800a1918800a021210021c0b300fe
:1045e4000148780090918000a191800042ff200052
:1045f4002d22070090918000a19180000020b0003e
:104604000180b00090918800a19188000000eb0027
:10461400109188004e4090000004e00047003a00ea
:104624001091800041ff2000e1407800a0c3b30056
:1046340080cf500043003a00109180000000e80051
:1046440010918800400037001091800041ff200045
:10465400e1407800a0c3b30080cf500017003200bf
:104664004e4090000080fb001191800042ff20002a
:1046740062c17800419f2000827078004e40900013
:104684000040e80040479800109180000000e800d6
:10469400109188001091800041ff2000e1407800d3
:1046a400a0c3b30080cf50000400320011918000f9
:1046b400f01f2000808f5000e9ff36001091800029
:1046c40041ff2000e1407800a0c3b30080cf500038
:1046d4001d003a00109180000000e800109188004d
:1046e4000040eb0040479800409f2000db13070088
:1046f4001cfc0700504798005e4090000004e00056
:1047040011003200de409000a0cab30080cf5000f8
:1047140004003a00a021210041c0b3000148780000
:1047240009003700a021210031cfb30001487800ef
:1047340010c0b30050479800030037000000000089
:104744000100370000000000409d20001040780068
:10475400e14f50000b00320011918000f01f200047
:10476400808f500007003e005e409000e14f5000f3
:1047740004003200704e8000680060000000e00019
:10478400b1ff3200409d200010407800e14f5000fe
:104794000b0032005e409000e14f500008003200f0
:1047a400704e8000680060000000e00004003a00e1
:1047b400a021210010407800e34f500089ff36000b
:1047c4001e01be00f2918800039288000080fa0066
:1047d400000006000800fa006000b80020079800f6
:1047e40031079800a00020007e1807006000b80080
:1047f400a0f0070000202000410020009df00700e9
:104804006000b8009bf00700008020000102200037
:1048140098f00700001920008108200095f0070097
:1048240010f027000102200092f00700200c200065
:10483400010220008ff007006000b8008df007002f
:1048440080002000000f780010932100a10b2000ad
:1048540088f007006000b80086f007006000b80028
:1048640084f007001e0fe9001e0078000000e0003d
:10487400f5ff3a0000422000410220007df00700cd
:1048840000b02300810820007af0070020002000f7
:10489400000f7800008020000102200075f007005e
:1048a400001920008108200072f007002e019000fa
:1048b400be0190004418dd00cc10de0081007000c1
:1048c4004410dd0020079800310798002e01900065
:1048d400be019000100020000102200000007100c1
:1048e4008180710020079800310798002e00900005
:1048f400be0090005ff007006000b8005df00700a4
:1049040010882000b10b20005af007006000b800a6
:1049140058f007006000b80056f0070010762e002b
:10492400810a200053f007006000b80051f007002e
:104934006000b8004ff007003bf40700004020007f
:104944000100200020079800310798001e0fe9009d
:104954001e0078000000e000ceff3a000080200036
:104964000102200043f00700001920008108200004
:1049740040f0070010032000410220003df0070032
:1049840010b02300810820003af0070010f027003f
:104994000102200037f00700200c20000102200053
:1049a40034f007006000b80032f0070080002000f7
:1049b400000f7800208b2100b10b20002df00700a0
:1049c4006000b8002bf007006000b80029f0070071
:1049d40010762e00810a200026f007006000b8003f
:1049e40024f007006000b80022f007000020200037
:1049f400410020001ff007006000b8001df0070010
:104a040000b02300010820001af0070000c22300b0
:104a14008108200017f007006000b80015f00700b7
:104a240094f20700100798006000b80011f0070026
:104a34001e0090000000e000ecff35001e0fe900ae
:104a44001e0078000000e000daff3a000080fa005f
:104a5400000006000e00fa000040eb00204f980012
:104a64000040eb00304f98000040eb00404f9800ae
:104a74000000eb00200798000000eb0030079800ce
:104a84000000eb00f090880024fb0700604e8000db
:104a94000050a000604e8800129280002392800093
:104aa400028fbe000040eb00204f98000900370041
:104ab4001e00be00b92107000000240001002000f0
:104ac4001e0f40005e9748002e4890000040e8000a
:104ad400204f98002e489000ff4f5000f4ff3600fe
:104ae4000040eb00204f9800409d20008040eb00e8
:104af400014878003e4890000004e0004a013a0072
:104b0400f09180000192800090918800a19188002a
:104b14001092800021928000709188008191880019
:104b24000040eb00304f9800a0212100a1c2b30047
:104b34000148780090918000a191800042ff2000fc
:104b4400d920070090918000a19180000020b0003e
:104b54000180b00090918800a19188000000eb00d2
:104b6400109188002e4890000004e0000c013a00e7
:104b74001091800041ff2000e1407800a0c3b30001
:104b840080cf500008013a00109180000000e80036
:104b940010918800050137001091800041ff20002a
:104ba400e1407800a0c3b30080cf5000170032006a
:104bb4002e4890000080fb001191800042ff2000ed
:104bc40062c17800419f2000827078002e489000d6
:104bd4000040e800204f9800109180000000e80099
:104be400109188001091800041ff2000e14078007e
:104bf400a0c3b30080cf50000400320011918000a4
:104c0400f01f2000808f5000e9ff360010918000d3
:104c140041ff2000e1407800a0c3b30080cf5000e2
:104c2400e2003a00109180000000e8001091880032
:104c34000040eb00204f9800409f2000871207009f
:104c4400c8fa0700304f98003e4890000004e00086
:104c5400d6003200be489000a0cab30080cf5000f6
:104c6400d2003a0030928000419280005091880036
:104c740061918800329180004391800000002000ff
:104c8400f1ff2f0002027800830178000001780010
:104c94000100780002016200008061008000eb00e6
:104ca400c000dd0000002000008fbe006110b800cd
:104cb4001e1f70001e9770001e00be004008de001c
:104cc40020079800309180004191800030079800bf
:104cd4000040eb00404f98004e4890008080fb005d
:104ce4003e0190008241780042df200003f1780009
:104cf4000040e800404f98004e4890008080fb0040
:104d04003e0190004811de008241780042df20001d
:104d140003f178000040e800404f98004e489000ae
:104d24008080fb002e0190008241780042df200049
:104d340003f178000040e800404f98004e4890008e
:104d44008080fb002e0190004811de008241780033
:104d540042df200003f178000040e800404f980053
:104d6400031b8100430798004e4890008080fb009d
:104d74004e0190008241780042df200003f1780068
:104d84000040e800404f98004e4890008080fb00af
:104d94004e0190004811de008241780042df20007d
:104da40003f178000040e800404f9800111b810097
:104db400410798004e4890008080fb004e0190000f
:104dc4008241780042df200003f178000040e800cf
:104dd400404f98004e4890008080fb004e019000a8
:104de4004811de008241780042df200003f17800a0
:104df4000040e800404f9800b021210010407800a6
:104e0400ec4f500004003200b02121001040780023
:104e1400ed4f500013003a00221b81004207980016
:104e24004e4890008080fb004e0190008241780043
:104e340042df200003f178000040e800404f980072
:104e44004e4890008080fb004e0190004811de0027
:104e54008241780042df200003f178000040e8003e
:104e6400404f9800b021210010407800ed4f5000d1
:104e740013003a00331b8100430798004e4890000a
:104e84008080fb004e0190008241780042df2000c8
:104e940003f178000040e800404f98004e4890002d
:104ea4008080fb004e0190004811de0082417800b2
:104eb40042df200003f178000040e800404f9800f2
:104ec4004e4990008281fb00609b200010407800d6
:104ed4000080fb006300b90000007800e12021009d
:104ee400e140780040df200001f079000240e80052
:104ef400404f98004e4990008281fb00609b200047
:104f0400104078000080fb006300b90000007800c6
:104f14000000e800e1202100e140780040df2000ab
:104f240001f079000240e800404f98004e4990009b
:104f34008281fb00609b2000104078000080fb0011
:104f44006300b900000078000080e800e12021003f
:104f5400e140780040df200001f079000240e800e1
:104f6400404f98004e4890000080fb00b121210082
:104f74001141780041df2000827078005091800058
:104f84006191800042df20001f20070050918000c3
:104f94006191800042bf2000c31f07000300370057
:104fa400000000000100370000000000409d2000c8
:104fb40010407800e14f50000b0032001191800046
:104fc400f01f2000808f500007003e003e489000f4
:104fd400e14f500004003200704e80006800600011
:104fe4000000e000ecfe3200409d200010407800fc
:104ff400e14f50000c0032003e489000e14f500059
:1050040009003200704e8000680060000000e0007b
:1050140005003a00a021210090407800e0c2b300ce
:1050240080cf5000c3fe36000080fa000000060066
:105034000200fa000000eb00000f78006000b800e6
:105044008cee0700002020004100200089ee0700bc
:105054006000b80087ee07000080200001022000f5
:1050640084ee0700001920008108200081ee07006b
:1050740000302000b10e20007eee0700708427006f
:10508400010220007bee07006000b80079ee070003
:1050940060b92000a10b200076ee07006000b80084
:1050a40074ee07006000b80072ee0700f1f007002c
:1050b4008040780040ff20001e0040000148780036
:1050c4001e0fe8006000b8006aee070060bb2d0008
:1050d400a10b200067ee07006000b80065ee070032
:1050e4006000b80063ee0700603d2d00a10b2000b6
:1050f40060ee07006000b8005eee07006000b800d4
:105104005cee0700dbf007008040780040ff2000e1
:105114001e004000014878001e0fe8006000b8003f
:1051240054ee070060bb2000a10b200051ee0700e5
:105134006000b8004fee07006000b8004dee0700b5
:10514400ccf007008040780040ff20001e004000a3
:10515400014878006000b80046ee07001e0fe80022
:10516400002020004100200042ee07006000b8004b
:1051740040ee0700f03f20009e007800808f500032
:10518400c3ff36000080fa00000006000400fa00a5
:105194000040eb00004f78000040eb0010479800ff
:1051a4006000b8003091880041918800a02121005e
:1051b40011c0b30001487800e8c2a900e902a900bf
:1051c400e842a900e862a800cbc2a800ca62a9000c
:1051d400ca82a900caa2a900ca42a800000000000d
:1051e400cb22a900cb02a800000000000040eb0085
:1051f400104798000000eb00604f8800b5f10700ed
:10520400104798001e4090000004e0003d003a0062
:10521400f7ed070036f607000040eb001047980052
:10522400604e80000010a100604e880015f2070057
:1052340000192000eb1507008cfc0700304798008c
:105244003e4090000004e0000c003a00ddf107004d
:10525400604e80000050a000604e88009df1070061
:10526400104798001e4090000004e00025003a001a
:10527400330007001047980022003700704e80006a
:105284000070a000704e880052fd0700604e800040
:105294000060a000604e8800befc0700704e8000d5
:1052a4000070a100704e8800a021210011c0b3003d
:1052b400014878006dfc0700304798003e4090009c
:1052c4000004e0000c003a00bef10700604e8000cc
:1052d4000050a000604e88007ef10700104798003f
:1052e4001e4090000004e00006003a00140007008d
:1052f4001047980003003700a0212100b1cfb3006c
:1053040001487800604e80000060a100604e880073
:10531400704e80000030a100704e8800a9f1070093
:10532400cbc2a900e842a900e862a900409d200080
:105334008040eb00014878000080fa00000006007d
:105344001a00fa000000eb00200798000000eb00b0
:10535400300798000000eb00200f98000040eb009d
:10536400004f7800a021210021c0b300014878003b
:1053740030928000419280005091880061918800b1
:10538400509180006191800042df2000c61e07001a
:1053940050df2000104078000080fb005007980088
:1053a4005e0090004800dd005007980040df2000b8
:1053b400104078008080fb005e00900001007000c7
:1053c400500798005e0090003007980070df2000be
:1053d400104078000080fb00500798005e009000a9
:1053e4004800dd005007980060df2000104078007e
:1053f4008080fb005e009000010070005007980060
:105404005e009000200798002e0090008000eb00c2
:105414003091880041918800309180004191800052
:10542400c001dd00020020003e0090008000eb007f
:1054340000007100818071003091880041918800e2
:1054440090df2000104078000080fb006007980087
:105454006e009000c800dd0080df2000104078005e
:105464000080fb000100700060079800b0df20009e
:10547400104078000080fb00700798007e009000c8
:10548400c800dd00a0df2000104078000080fb0091
:10549400010070007007980080c0b3002047980096
:1054a400b021210010407800ec4f5000040032007d
:1054b400b021210010407800ed4f50000d003a005b
:1054c400d0df2000104078000080fb00000f98001f
:1054d4000e089000c800dd00c0df200010407800f6
:1054e4000080fb0001007000000f9800a0c0b30012
:1054f40020479800b021210010407800ed4f500063
:105504000d003a00f0df2000104078000080fb001e
:10551400100f98001e089000c800dd00e0df200096
:10552400104078000080fb0001007000100f98000c
:10553400c0c0b30020479800609b20001040780052
:105544000080fb00ae4090008180fb0042df200021
:1055540062c17800e32021006300b90000007800f4
:1055640000804100024878002e4090000040e8008e
:1055740020479800609b2000104078000080fb00ca
:10558400ae4090008180fb0042df200062c17800c1
:10559400e32021006300b90000007800008041008e
:1055a4000000e800024878002e4090000040e80027
:1055b40020479800609b2000104078000080fb008a
:1055c400ae4090008180fb0042df200062c1780081
:1055d400e32021006300b90000007800008041004e
:1055e4000080e800024878002e4090000040e80067
:1055f400204798002e4090000080fb0041df2000ef
:105604006141780032479800f09180000192800057
:1056140050918800619188005091800061918000d0
:1056240042df2000201e07002e0890000000e80042
:10563400200f98000040eb00104798000000eb009a
:10564400400798004e0090000000e80041df200071
:1056540061407800e14f40003b0032004e00900072
:105664000000e80041df2000614078000080fb007a
:10567400500798005e0090004800dd005007980035
:105684004e00900041df2000614078008080fb00e4
:105694005e00900001007000500798005e009000ca
:1056a400200798004e0090006300400041df200076
:1056b400614078000080fb00500798005e00900075
:1056c4004800dd00500798004e0090000080e8007c
:1056d40041df2000614078008080fb005e00900084
:1056e40001007000500798005e0090003007980099
:1056f4004e00900064004000400798002e00900087
