:020000040000fa
:080000000002040000000000f2
:020000040000fa
:100400008f372200007f22000001880000000000da
:100410000c000700a0312600010020001100070099
:10042000000020000000e000020032000000020096
:10043000000000003c330200000000000040da0031
:100440000000fe004440a900000020000000e00081
:100450000300320000002000a00188004440a800f2
:100460000000060091018800800078000000eb0089
:1004700015003700e280400032a0b4009101ba00bc
:10048000e280400032a0b4009102ba00e280400055
:1004900032a0b4000002eb00472bde00f507b200eb
:1004a000602ce10004003a000059eb008301e900f0
:1004b000fdff3e00040037006128e100010032002a
:1004c0000082eb00040007001101ba000200e00006
:1004d000e8ff3a00000006003159ba008301e90044
:1004e0000c0032002159ba008301e90008003200f3
:1004f0000400e00003003a00e280400032a0b400b3
:10050000f5ff370011d9ba008301e900faff3a007c
:100510008100e800e180400032a0b4000000060045
:100520008001eb000200370061f079008301e800f0
:0c053000828f5100fcff3a000000060022
:020000040000fa
:020000040002f8
:04aff8003efb00001c
:020000040000fa
:020000040002f8
:04affc007a360000a1
:020000040000fa
:100008003c6300003c6300003c6300003c6300006c
:100018003c6300003c6300003c6300003c6300005c
:100028003c6300003c6300003c6300002e3100008c
:100038003c6300003c6300003c6300003c6300003c
:100048003c6300003c6300003c6300003c6300002c
:100058003c6300000c3100003c6300003c6300007e
:100068003c6300003c6300003c6300003c6300000c
:100078003c6300003c6300003c6300003c630000fc
:100088003c6300003c6300003c6300003c630000ec
:100098003c6300003c6300003c6300003c630000dc
:1000a8003c6300003c6300003c6300003c630000cc
:1000b8003c6300003c6300003c6300003c630000bc
:1000c8003c6300003c6300003c6300003c630000ac
:1000d8003c6300003c6300003c6300003c6300009c
:1000e8003c6300003c6300003c6300003c6300008c
:1000f8003c6300003c6300003c6300003c6300007c
:100108003c6300003c6300003c6300003c6300006b
:100118003c6300003c6300003c6300003c6300005b
:100128003c6300003c6300003c6300003c6300004b
:100138003c6300003c6300003c6300003c6300003b
:100148003c6300003c6300003c6300003c6300002b
:100158003c6300003c6300003c6300003c6300001b
:100168003c6300003c6300003c6300003c6300000b
:100178003c6300003c6300003c6300003c630000fb
:100188003c6300003c6300003c6300003c630000eb
:100198003c6300003c6300003c6300003c630000db
:1001a8003c6300003c6300003c6300003c630000cb
:1001b8003c6300003c6300003c6300003c630000bb
:1001c8003c6300003c6300003c6300003c630000ab
:1001d8003c6300003c6300003c6300003c6300009b
:1001e8003c6300003c6300003c6300003c6300008b
:0801f8003c6300003c630000c1
:020000040000fa
:100208003c6300003c6300003c6300003c6300006a
:100218003c6300003c6300003c6300003c6300005a
:100228003c6300003c6300003c6300002e3100008a
:100238003c6300003c6300003c6300003c6300003a
:100248003c6300003c6300003c6300003c6300002a
:100258003c6300000c3100003c6300003c6300007c
:100268003c6300003c6300003c6300003c6300000a
:100278003c6300003c6300003c6300003c630000fa
:100288003c6300003c6300003c6300003c630000ea
:100298003c6300003c6300003c6300003c630000da
:1002a8003c6300003c6300003c6300003c630000ca
:1002b8003c6300003c6300003c6300003c630000ba
:1002c8003c6300003c6300003c6300003c630000aa
:1002d8003c6300003c6300003c6300003c6300009a
:1002e8003c6300003c6300003c6300003c6300008a
:1002f8003c6300003c6300003c6300003c6300007a
:100308003c6300003c6300003c6300003c63000069
:100318003c6300003c6300003c6300003c63000059
:100328003c6300003c6300003c6300003c63000049
:100338003c6300003c6300003c6300003c63000039
:100348003c6300003c6300003c6300003c63000029
:100358003c6300003c6300003c6300003c63000019
:100368003c6300003c6300003c6300003c63000009
:100378003c6300003c6300003c6300003c630000f9
:100388003c6300003c6300003c6300003c630000e9
:100398003c6300003c6300003c6300003c630000d9
:1003a8003c6300003c6300003c6300003c630000c9
:1003b8003c6300003c6300003c6300003c630000b9
:1003c8003c6300003c6300003c6300003c630000a9
:1003d8003c6300003c6300003c6300003c63000099
:1003e8003c6300003c6300003c6300003c63000089
:0803f8003c6300003c630000bf
:020000040000fa
:10053c000000fa00e902a900e8c2a90000000000ce
:10054c00e902a900e8c2a80000000000e8c2a90066
:10055c0000000000e902a900e8c2a80000000000a9
:10056c00e8c2a90000000000e902a900e8c2a80046
:10057c0000000000e8c2a90000000000e902a90088
:10058c00e8c2a80000000000e8c2a90000000000ba
:10059c00e902a900e8c2a80000000000e902a900d5
:1005ac00e8c2a9006000b800020007000080fa0051
:1005bc00000006000400fa00008fbe00e902a9004a
:1005cc00e8c2a90000000000e902a900e8c2a800e6
:1005dc0000000000e8c2a90000000000e902a90028
:1005ec00e8c2a80000000000e8c2a900000000005a
:1005fc00e902a900e8c2a80000000000e8c2a900b6
:10060c0000000000e902a900e8c2a80000000000f8
:10061c00e902a900e8c2a9001e007800610160008f
:10062c006000b8000300200002007000838070009e
:10063c000000e00003003200e8c2a900e902a800b3
:10064c0002003700e8c2a900e902a900000000007e
:10065c00e8c2a8001e00be008100d1000080d300bb
:10066c00610060000004e00003003200e8c2a90051
:10067c00e902a80002003700e8c2a900e902a900bb
:10068c0000000000e8c2a8001e00be004e09dd00fc
:10069c004200de0000007100c208de006100600054
:1006ac000004e00003003200e8c2a900e902a8003f
:1006bc0002003700e8c2a900e902a900000000000e
:1006cc00e8c2a8001e00be004d09dd004300de009c
:1006dc0000007100c308de00610060000004e0004f
:1006ec0003003200e8c2a900e902a80002003700aa
:1006fc00e8c2a900e902a90000000000e8c2a800b5
:10070c001e00be004c09dd004400de00000071003c
:10071c00c408de00610060000004e0000300320049
:10072c00e8c2a900e902a80002003700e8c2a9004b
:10073c00e902a90000000000e8c2a8001e00be00eb
:10074c004b09dd004500de0000007100c508de002d
:10075c00610060000004e00003003200e8c2a90060
:10076c00e902a80002003700e8c2a900e902a900ca
:10077c0000000000e8c2a8001e00be004a09dd000f
:10078c004600de0000007100c608de00610060005b
:10079c000004e00003003200e8c2a900e902a8004e
:1007ac0002003700e8c2a900e902a900000000001d
:1007bc00e8c2a8001e00be004909dd004700de00ab
:1007cc0000007100c708de00610060000004e0005a
:1007dc0003003200e8c2a900e902a80002003700b9
:1007ec00e8c2a900e902a90000000000e8c2a800c4
:1007fc001e00be004809dd004800de00000071004c
:10080c00c808de00610060000004e0000300320054
:10081c00e8c2a900e902a80002003700e8c2a9005a
:10082c00e902a90000000000e8c2a8001e00be00fa
:10083c004709dd004900de0000007100c908de0038
:10084c00610060000004e00003003200e8c2a9006f
:10085c00e902a80002003700e8c2a900e902a900d9
:10086c0000000000e8c2a8001e00be004609dd0022
:10087c004a00de0000007100ca08de006100600062
:10088c000004e00003003200e8c2a900e902a8005d
:10089c0002003700e8c2a900e902a900000000002c
:1008ac00e8c2a8001e00be004509dd004b00de00ba
:1008bc0000007100cb08de00610060000004e00065
:1008cc0003003200e8c2a900e902a80002003700c8
:1008dc00e8c2a900e902a90000000000e8c2a800d3
:1008ec001e00be004409dd004c00de00000071005b
:1008fc00cc08de00610060000004e0000300320060
:10090c00e8c2a900e902a80002003700e8c2a90069
:10091c00e902a90000000000e8c2a8001e00be0009
:10092c004309dd004d00de0000007100cd08de0043
:10093c00610060000004e00003003200e8c2a9007e
:10094c00e902a80002003700e8c2a900e902a900e8
:10095c0000000000e8c2a8001e00be004209dd0035
:10096c004e00de0000007100ce08de006100600069
:10097c000004e00003003200e8c2a900e902a8006c
:10098c0002003700e8c2a900e902a900000000003b
:10099c00e8c2a8001e00be004109dd004f00de00c9
:1009ac0000007100cf08de00610060000004e00070
:1009bc0003003200e8c2a900e902a80002003700d7
:1009cc00e8c2a900e902a90000000000e8c2a800e2
:1009dc001e00be004008de00010020006100600027
:1009ec000004e00003003200e8c2a900e902a800fc
:1009fc0002003700e8c2a900e902a90000000000cb
:100a0c00e8c2a8001e00be004108de000100200064
:100a1c00610060000004e00003003200e8c2a9009d
:100a2c00e902a80002003700e8c2a900e902a90007
:100a3c0000000000e8c2a8001e00be004208de0054
:100a4c0001002000610060000004e000030032009f
:100a5c00e8c2a900e902a80002003700e8c2a90018
:100a6c00e902a90000000000e8c2a8001e00be00b8
:100a7c004308de0001002000610060000004e0007b
:100a8c0003003200e8c2a900e902a8000200370006
:100a9c00e8c2a900e902a90000000000e8c2a80011
:100aac001e00be004408de00010020006100600052
:100abc000004e00003003200e8c2a900e902a8002b
:100acc0002003700e8c2a900e902a90000000000fa
:100adc00e8c2a8001e00be004508de000100200090
:100aec00610060000004e00003003200e8c2a900cd
:100afc00e902a80002003700e8c2a900e902a90037
:100b0c0000000000e8c2a8001e00be004608de007f
:100b1c0001002000610060000004e00003003200ce
:100b2c00e8c2a900e902a80002003700e8c2a90047
:100b3c00e902a90000000000e8c2a8001e00be00e7
:100b4c004708de0001002000610060000004e000a6
:100b5c0003003200e8c2a900e902a8000200370035
:100b6c00e8c2a900e902a90000000000e8c2a80040
:100b7c0000000000e902a900e8c2a9000080fa0008
:100b8c00000006000200fa000000eb00000f7800e5
:100b9c00e902a900e8c2a900e902a80000000000cf
:100bac00e8c2a80000000000e902a900e8c2a90000
:100bbc0000000000e8c2a80000000000e902a90043
:100bcc00e8c2a90000000000e8c2a8000000000074
:100bdc00e902a900e8c2a90000000000e8c2a800d0
:100bec0000000000e902a900e8c2a9000000000012
:100bfc0000000000e8c2a80000000000e8c2a90044
:100c0c0000000000e8c2a80000000000e8c2a90033
:100c1c0000000000e8c2a80000000000e8c2a90023
:100c2c0000000000e8c2a80000000000e8c2a90013
:100c3c0000000000e8c2a80000000000e8c2a90003
:100c4c0000000000e8c2a80000000000e8c2a900f3
:100c5c0000000000e8c2a80000000000e8c2a900e3
:100c6c0000000000e8c2a80000000000e8c2a900d3
:100c7c00cbc2a90030fb2f0020178800e8c2a800c7
:100c8c00000000000000000000000000612e2000a9
:100c9c009140780000c8b30000c060000004e00080
:100cac00010032001e00a000e8c2a90000000000f4
:100cbc00e8c2a800e6c2bf0001c8b3000140600052
:100ccc000004e000010032001e10a000e8c2a900e0
:100cdc0000000000e8c2a800e6c2bf0001c8b300d3
:100cec00014060000004e000010032001e20a00062
:100cfc00e8c2a90000000000e8c2a800e6c2bf00dc
:100d0c0001c8b300014060000004e00001003200a3
:100d1c001e30a000e8c2a90000000000e8c2a80034
:100d2c00e6c2bf0001c8b300014060000004e0004f
:100d3c00010032001e40a000e8c2a9000000000023
:100d4c00e8c2a800e6c2bf0001c8b30001406000c1
:100d5c000004e00002003200000220001e0f7000b0
:100d6c00e8c2a90000000000e8c2a800e6c2bf006b
:100d7c0001c8b300014060000004e0000200320032
:100d8c00000420001e0f7000e8c2a9000000000043
:100d9c00e8c2a800e6c2bf0001c8b3000140600071
:100dac000004e00002003200000820001e0f70005a
:100dbc00e8c2a90000000000e8c2a800e6c2bf001b
:100dcc0001c8b300014060000004e00002003200e2
:100ddc00001020001e0f7000e8c2a90000000000e7
:100dec00e8c2a800e6c2bf0001c8b3000140600021
:100dfc000004e00002003200002020001e0f7000f2
:100e0c00e8c2a90000000000e8c2a800e6c2bf00ca
:100e1c0001c8b300014060000004e0000200320091
:100e2c00004020001e0f7000e8c2a9000000000066
:100e3c00e8c2a800e6c2bf0001c8b30001406000d0
:100e4c000004e00002003200008020001e0f700041
:100e5c00e8c2a90000000000e8c2a800e6c2bf007a
:100e6c0001c8b300014060000004e0000200320041
:100e7c00000021001e0f7000e8c2a9000000000055
:100e8c00e8c2a800e6c2bf0001c8b3000140600080
:100e9c000004e00002003200000022001e0f70006f
:100eac00e8c2a90000000000e8c2a800e6c2bf002a
:100ebc0001c8b300014060000004e00002003200f1
:100ecc00000024001e0f7000e8c2a9000000000002
:100edc00e8c2a800e6c2bf0001c8b3000140600030
:100eec000004e000040032001e007800010028001d
:100efc0001007000000f7800e8c2a900cbc2a80066
:100f0c0030eb2f00201788001e0078000080fa00bc
:100f1c00000006000e00fa0000002000010028006e
:100f2c00300798004107980000c2b300004f7800ca
:100f3c00614e800000022000008060000000e00094
:100f4c00050032000085240031d4240010079800dd
:100f5c0021079800040037001085240031d42400a8
:100f6c001007980021079800e902a9002a00370011
:100f7c00e8c2a9001e009000ae0090003e01900057
:100f8c00ce01900000027800810278000200780007
:100f9c008300780000016200018062006102b800e9
:100fac0054079800650798005e009000ee009000d2
:100fbc00c000dd0000002000500798006107980079
:100fcc005e009000ee0090006112b800540798008b
:100fdc00650798005e019000ee0190000200700021
:100fec0083807000e00f5000e08f58000200320048
:100ffc00e902a80001003700e902a9003e009000b8
:10100c00ce0090008100d1000080d3003007980002
:10101c0041079800e8c2a8001e4fe90080c1eb0010
:10102c009ecf1100d2ff3a00e902a900e8c2a90044
:10103c000080fa00000006000200fa00cac2a900f3
:10104c00cae2a90000000000cb42a800800c2000de
:10105c0003170700d1928000d0072000808f50002a
:10106c0004003600d1928000b0122000808f500016
:10107c0007003600cb42a90061cfb30080212100cc
:10108c000148780010002000000f7800270037007e
:10109c0000192000f2160700cae2a80000000000a8
:1010ac00cac2a80040012000ed160700c1928000c2
:1010bc0080072000808f500004003600c192800011
:1010cc00b0122000808f500009003600cac2a9005f
:1010dc00cae2a9000000000071cfb30080212100fa
:1010ec000148780010002000000f78000f00370036
:1010fc00cac2a900cae2a90000000000c003200077
:10110c00d716070083ff070080022000d4160700c3
:10111c00cae2a80000000000cac2a8000005200016
:10112c00cf1607000000eb00000f78001e007800bf
:10113c000080fa00000006000000fa00e8c2a900d6
:10114c00e902a900b0002000c5160700cac2a90018
:10115c00cae2a90000000000b0002000c016070081
:10116c00cb42a90040012000bd160700cae2a8002e
:10117c00000000000080fa00000006000000fa00e9
:10118c0000202000410020000afd07006000b8008c
:10119c0008fd07000080fa00000006000200fa00bb
:1011ac00002020004100200002fd07006000b80074
:1011bc0000fd070020b0230001082000fdfc070003
:1011cc0020c2230081082000fafc07006000b80050
:1011dc00f8fc07006bfe0700000f78006000b800f9
:1011ec00f4fc07001e0078000000e000ecff350066
:1011fc000080fa00000006000000fa006000b80051
:10120c00ecfc07000020200041002000e9fc070056
:10121c006000b800e7fc0700a04f2000410220004e
:10122c00e4fc0700a0b0230081082000e1fc0700cb
:10123c000000200001022000defc07000019200045
:10124c0081082000dbfc07000000200001022000c8
:10125c00d8fc070000802000b10b2000d5fc070053
:10126c006000b800d3fc07006000b800d1fc070098
:10127c0010762e00810a2000cefc07006000b8001a
:10128c00ccfc07006000b800cafc0700c3ff0700d5
:10129c000080fa00000006002a00fa00881f78007f
:1012ac003007980041079800000020000102200040
:1012bc0010079800210798004e0090001000be0007
:1012cc00f2ff2f000300200000027800810278005a
:1012dc000200780083007800000162000180620047
:1012ec006102b80054079800650798005e009000f2
:1012fc00ee009000c000dd000000200050079800b8
:10130c00610798005e009000ee0090006112b8003a
:10131c0054079800650798005e019000ee0190005c
:10132c0002007000838070003e0190000089be00b6
:10133c003e009000640340004e00900064004000aa
:10134c001000be0002002000f30f20000002780005
:10135c0081027800020078008300780000016200ae
:10136c00018062006102b80074079800050f9800b4
:10137c007e0090008e089000c000dd000000200070
:10138c0070079800010f98007e0090008e08900066
:10139c006112b80074079800050f98007e01900048
:1013ac008e0990000200700083807000008bbe00dc
:1013bc003e009000640140003e009000640040003c
:1013cc001000be00c809dd004800de00008071007e
:1013dc00c808de000089be003e0090006404400096
:1013ec003e009000640040001003be004e009000d0
:1013fc001000be0002002000f30f20000002780055
:10140c0081027800020078008300780000016200fd
:10141c00018062006102b800140f9800250f98003b
:10142c001e089000ae089000c000dd0000002000f7
:10143c00100f9800210f98001e089000ae08900025
:10144c006112b800140f9800250f98001e09900027
:10145c00ae09900002007000838070004008de002e
:10146c00010020000000730081807300008cbe001e
:10147c003e009000680340004e0090006400400065
:10148c001000be00f2ff2f000300200000027800c5
:10149c00810278000200780083007800000162006d
:1014ac00018062006102b800340f9800450f98006b
:1014bc003e089000ce089000c000dd000000200027
:1014cc00300f9800410f98003e089000ce08900015
:1014dc006112b800340f9800450f98003e09900037
:1014ec00ce0990000200700083807000008bbe005b
:1014fc003e0090006c0340004e00900068004000dd
:10150c001000be00f2ff2f00030020000002780044
:10151c0081027800020078008300780000016200ec
:10152c00018062006102b800540f9800650f9800aa
:10153c005e089000ee089000c000dd000000200066
:10154c00500f9800610f98005e089000ee08900014
:10155c006112b800540f9800650f98005e09900056
:10156c00ee0990000200700083807000008bbe00ba
:10157c003e009000700340004e0090006c00400054
:10158c001000be0002002000f30f200000027800c3
:10159c00810278000200780083007800000162006c
:1015ac00018062006102b800740f98000517980062
:1015bc007e0890008e109000c000dd00000020001e
:1015cc00700f9800011798007e0890008e10900004
:1015dc006112b800740f9800051798007e099000ee
:1015ec008e1190000200700083807000008bbe0092
:1015fc003e009000700140003e00900070004000e2
:10160c001000be00c809dd004800de00008071003b
:10161c00c808de000089be003e0090007004400047
:10162c003e009000700040001003be004e00900081
:10163c00680040001000be0002002000f30f2000e4
:10164c0000027800810278000200780083007800a4
:10165c0000016200018062006102b800141798005a
:10166c00251798001e109000ae109000c000dd00f1
:10167c000000200010179800211798001e109000f1
:10168c00ae1090006112b80014179800251798003e
:10169c001e119000ae11900002007000838070004b
:1016ac004008de0001002000000073008180730000
:1016bc00008cbe003e009000740340004e00900071
:1016cc006c0040001000be00f2ff2f000300200051
:1016dc000002780081027800020078008300780014
:1016ec0000016200018062006102b80034179800aa
:1016fc00451798003e109000ce109000c000dd0001
:10170c000000200030179800411798003e10900000
:10171c00ce1090006112b80034179800451798004d
:10172c003e119000ce11900002007000838070007a
:10173c00008bbe00a0352200104078000081fb0019
:10174c003e0090001000be00800178008200410035
:10175c00e02521000080400003087800a03522001d
:10176c00104078008040e800a03522000148780045
:10177c00a0352200104078000081fb003e00900054
:10178c00640040001000be0080017800820041001f
:10179c00e02521000080400003087800a0352200dd
:1017ac00104078008040e800a03522000148780005
:1017bc00a0352200104078000081fb003e00900014
:1017cc00680040001000be008001780082004100db
:1017dc00e02521000080400003087800a03522009d
:1017ec00104078008040e800a035220001487800c5
:1017fc00a0352200104078000081fb003e009000d4
:10180c006c0040001000be00800178008200410096
:10181c00e02521000080400003087800a03522005c
:10182c00104078008040e800a03522000148780084
:10183c00a0352200104078000081fb003e00900093
:10184c00700040001000be00800178008200410052
:10185c00e02521000080400003087800a03522001c
:10186c00104078008040e800a03522000148780044
:10187c00a0352200104078000081fb003e00900053
:10188c00740040001000be0080017800820041000e
:10189c00e02521000080400003087800a0352200dc
:1018ac00104078008040e800a03522000148780004
:1018bc00614e800000022000008060000000e0000b
:1018cc002d003a000040eb00004f78002700370055
:1018dc001e80fb004200dd00800078003e0090007e
:1018ec00008140001e80fb004200dd00800078007b
:1018fc003e009000008040001000be00c409dd00d6
:10190c00cc00de00818071004400dd000089be0047
:10191c001e80fb004200dd00800078003e0090003d
:10192c00008240001e80fb004200dd008000780039
:10193c003e009000008040001001be001e00900090
:10194c00ae0090000000710081807100008abe0022
:10195c001e4fe8001e009000ae0090006100400099
:10196c00e0804800100798002107980054c0b3008d
:10197c009e4f1200d6ff36004f0478000080fa000c
:10198c00000006001800fa00600798007107980024
:10199c006000b80020079800310798006000b8007c
:1019ac00400798005107980000c1b30020479800e9
:1019bc000040eb00104798000040eb00004f78000f
:1019cc00eefd0700714e80000008200000806000d2
:1019dc000000e00007003a00a001200041022000b6
:1019ec00f4fa0700a0b0230081082000f1fa0700e8
:1019fc00060037000001200041022000edfa07002c
:101a0c0000b0230081082000eafa0700704e800025
:101a1c0001082000010060000000e00005003a0011
:101a2c0000002000010220002007980031079800d8
:101a3c0004003700008020000102200020079800dd
:101a4c00310798007e009000b01a89002049800070
:101a5c003149800002002000f30f200000027800c2
:101a6c008102780002007800830078000001620097
:101a7c00018062006102b800040f9800150f9800f5
:101a8c000e0890009e089000c000dd0000002000b1
:101a9c00000f9800110f98000e0890009e089000ff
:101aac006112b800040f9800150f98000e099000f1
:101abc009e0990000200700083807000200798003f
:101acc00310798002e009000be009000c409dd0084
:101adc004c00de0000807100cc08de00200798006e
:101aec00310798002e019000be01900000002000ec
:101afc000102200000007100818071002007980015
:101b0c00310798002049800031498000f2ff2f00f6
:101b1c0003002000000278008102780002007800a7
:101b2c008300780000016200018062006102b8004d
:101b3c00240f9800350f98002e089000be089000d6
:101b4c00c000dd0000002000200f9800310f98002d
:101b5c002e089000be0890006112b800240f980067
:101b6c00350f98002e099000be09900002007000fd
:101b7c008380700040079800510798004e00900039
:101b8c00de009000c409dd00cc00de008180710015
:101b9c004400dd0040079800510798004e0190006a
:101bac00de01900070002000010220000000710096
:101bbc008180710040079800510798002e0090001a
:101bcc00be0090007bfa070000192000810820005d
:101bdc0078fa07004e009000de00900075fa0700be
:101bec008040eb00a0352200014878005a003700f5
:101bfc001e4090000080fb004200dd008000780059
:101c0c006e00900080804000401f2100a2fd070064
:101c1c00a08f8000b18f800066fa0700c08f800013
:101c2c00d18f800063fa0700e08f8000f18f800075
:101c3c0060fa070000908000119080005dfa0700a8
:101c4c0020908000319080005afa0700409080006c
:101c5c005190800057fa070000302000b10e200090
:101c6c0054fa07006000b80052fa070060bb20006d
:101c7c00b10b20004ffa07006000b8004dfa0700c6
:101c8c006000b8004bfa070060bb2d00b10b2000c0
:101c9c0048fa07006000b80046fa07006000b80078
:101cac0044fa070060bb2e00b10b200041fa07007c
:101cbc006000b8003ffa07006000b8003dfa07006a
:101ccc0060bb2100b10b20003afa07006000b8009d
:101cdc0038fa07006000b80036fa070060bb200035
:101cec00b10b200033fa07006000b80031fa07008e
:101cfc006000b8002ffa070060bb2d00b10b20006c
:101d0c002cfa07006000b8002afa07006000b8003f
:101d1c0028fa070060bb2e00b10b200025fa070043
:101d2c006000b80023fa07006000b80021fa070031
:101d3c0060bb2100b10b20001efa07006000b80048
:101d4c001cfa07006000b8001afa07001e40900049
:101d5c0064404000104798002e4090000040e9007d
:101d6c00204798002e409000e14f4000a0ff3a0021
:101d7c0010762e00810a20000efa07006000b800d1
:101d8c000cfa07006000b8000afa070003fd070010
:101d9c00fafc07000080fa00000006001600fa00aa
:101dac0040079800510798005e0090001001be009b
:101dbc00f0ff2f00f10f2000800f5100818f590090
:101dcc00330032004e0090000080e80010007800d4
:101ddc0001002000f20f2000030020000002780018
:101dec008102780002007800830078000001620014
:101dfc00018062006102b80074079800050f98001a
:101e0c007e0090008e089000c000dd0000002000d5
:101e1c0070079800010f98007e0090008e089000cb
:101e2c006112b80074079800050f98007e019000ad
:101e3c008e0990000200700083807000008fbe003d
:101e4c001e00be00c000dd0000002000008fbe00a0
:101e5c001e01be004e009000100078000100200012
:101e6c000000710081807100008fbe001e01be0059
:101e7c005e0090001000be00800f5100818f590051
:101e8c00030032001300200063079800470037005e
:101e9c005e009000640040001001be00f0ff2f00b7
:101eac00f10f2000800f5100818f59003d0032004e
:101ebc004e0090000080e800100078000100200027
:101ecc0002f02f000300200000027800810278004d
:101edc00020078008300780000016200018062003b
:101eec006102b800140f9800250f98001e0890008e
:101efc00ae089000c000dd0000002000100f98001c
:101f0c00210f98001e089000ae0890006112b800d6
:101f1c00140f9800250f98001e099000ae09900030
:101f2c000200700083807000200798003107980031
:101f3c002e009000be009000c808dd000080fd005f
:101f4c00804078000040eb00200798003107980093
:101f5c002e019000be0190004e00900064004000e5
:101f6c0010007800010020000000710081807100d9
:101f7c0020079800310798002e019000be019000b8
:101f8c005e009000640040001000be00800f510005
:101f9c00818f590003003200130020006307980062
:101fac00020037000002eb00640798006e009000fe
:101fbc000080fa00000006001c00fa00100f9800c8
:101fcc006000b80010079800210798006000b80066
:101fdc0030079800410798000040eb00204f980014
:101fec000040eb00004f780064fc0700000020006c
:101ffc00010220001007980021079800204980005a
:10200c003149800002002000f30f2000000278000c
:10201c0081027800020078008300780000016200e1
:10202c00018062006102b800240f9800350f9800ff
:10203c002e089000be089000c000dd0000002000bb
:10204c00200f9800310f98002e089000be089000c9
:10205c006112b800240f9800350f98002e099000db
:10206c00be09900002007000838070001007980079
:10207c00210798001e009000ae009000c409dd00fe
:10208c004c00de0000807100cc08de0010079800c8
:10209c00210798001e019000ae0190000000200066
:1020ac00010220000000710081807100100798006f
:1020bc00210798002049800031498000f2ff2f0051
:1020cc0003002000000278008102780002007800f2
:1020dc008300780000016200018062006102b80098
:1020ec00440f9800550f98004e089000de089000a1
:1020fc00c000dd0000002000400f9800510f980038
:10210c004e089000de0890006112b800440f980051
:10211c00550f98004e099000de09900002007000e7
:10212c008380700030079800410798003e009000b3
:10213c00ce009000c409dd00cc00de00818071006f
:10214c004400dd0030079800410798003e019000e4
:10215c00ce01900060002000010220000000710000
:10216c008180710030079800410798001e00900094
:10217c00ae0090000ff90700001920008108200024
:10218c000cf907003e009000ce00900009f9070002
:10219c00708427000102200006f907006000b800d7
:1021ac0004f907008040eb00b035220001487800ac
:1021bc000d003700b0352200104078000080fb0085
:1021cc008000400060262200808040000080eb00f0
:1021dc0080087800b0352200104078008040e8007c
:1021ec00b035220001487800b035220090407800cc
:1021fc0030c6b30080cf5000eeff36008040eb00bd
:10220c00b035220001487800c000370060b92000ca
:10221c00a10b2000e7f807006000b800e5f8070004
:10222c006000b800e3f8070056fa07008000780059
:10223c006c004700010878006000b800ddf807006a
:10224c0060bb2d00a10b2000daf807006000b8007d
:10225c00d8f807006000b800d6f80700603d2d00e4
:10226c00a10b2000d3f807006000b800d1f80700dc
:10227c006000b800cff8070042fa07008000780031
:10228c006c004700110098006000b800c9f8070006
:10229c0060bb2000a10b2000c6f807006000b8004e
:1022ac00c4f807006000b800c2f8070035fa070050
:1022bc00800078006c004700210098006000b80096
:1022cc00bcf80700b01a81000000e00006003a00dc
:1022dc00c01a81000000e00003003a00604e80004c
:1022ec000010a000604e8800604e8000620060000c
:1022fc000000e00081003200b03522001040780070
:10230c008080fb006c004700100178008180400049
:10231c00602622000080400002087800b0352200c0
:10232c00104078000080fb0080004000e025210078
:10233c000080400010007800e10f400014003200d3
:10234c00b0352200104078000080fb008000400077
:10235c00602622000080400010017800b035220079
:10236c00104078000080fb0080004000e025210038
:10237c000080400010007800800f510004003200f3
:10238c000000000000000000000000000000000041
:10239c00b0352200104078008040e800b0352200b3
:1023ac0001487800b0352200104078008080fb0096
:1023bc006c004700100190008180400060262200d4
:1023cc000080400002087800b035220010407800f0
:1023dc000080fb0080004000e025210000804000d0
:1023ec0010007800e10f400014003200b0352200dc
:1023fc00104078000080fb00800040006026220026
:10240c000080400010017800b035220010407800a8
:10241c000080fb0080004000e0252100008040008f
:10242c0010007800800f5100040032000000000002
:10243c00000000000000000000000000b035220089
:10244c00104078008040e800b03522000148780048
:10245c00b0352200104078008080fb006c004700f3
:10246c002001900081804000602622000080400006
:10247c0002087800b0352200104078000080fb0084
:10248c0080004000e0252100008040001000780012
:10249c00e10f400014003200b035220010407800eb
:1024ac000080fb008000400060262200008040007d
:1024bc0010017800b0352200104078000080fb003d
:1024cc0080004000e02521000080400010007800d2
:1024dc00800f5100040032000000000000000000da
:1024ec000000000000000000b03522001040780011
:1024fc008040e800b0352200014878001ffb07003f
:10250c002e4890000040e800204f98002e48900084
:10251c00ff4f50003dff36001e80fb000080fa008c
:10252c00000006003800fa00881f780020c0b300b5
:10253c00004f78009021210010407800ed4f5000a2
:10254c0067003a00f01a8100100f9800001b810000
:10255c00200f9800101b8100300f9800201b810069
:10256c00400f9800a0928000b1928000f2ff2f00e3
:10257c00030020000002780081027800020078003d
:10258c008300780000016200018062006102b800e3
:10259c00640f9800750f98006e089000fe0890006c
:1025ac00c000dd0000002000600f9800710f980043
:1025bc006e089000fe0890006112b800640f98003d
:1025cc00750f98006e099000fe09900002007000d3
:1025dc008380700030079800410798003e009000ff
:1025ec00ce009000c409dd00cc00de0081807100bb
:1025fc004400dd0030079800410798003e01900030
:10260c00ce0190007000200001022000000071003b
:10261c00818071003007980041079800a0928000db
:10262c00b192800002002000f30f2000000278001d
:10263c0081027800020078008300780000016200bb
:10264c00018062006102b800041798001517980009
:10265c000e1090009e109000c000dd0000002000c5
:10266c0000179800111798000e1090009e10900003
:10267c006112b80004179800151798000e119000fd
:10268c009e1190000200700083807000100798006b
:10269c00210798001e009000ae009000c409dd00d8
:1026ac004c00de0000807100cc08de0010079800a2
:1026bc00210798001e019000ae0190000000200040
:1026cc000102200000007100818071001007980049
:1026dc002107980040c0b300004f7800cb003700b2
:1026ec009021210010407800ec4f500065003a001a
:1026fc00f01a8100100f9800001b8100200f980029
:10270c00101b8100300f9800809280009192800005
:10271c00f2ff2f00030020000002780081027800f5
:10272c0002007800830078000001620001806200e2
:10273c006102b80024179800351798002e109000ed
:10274c00be109000c000dd00000020002017980093
:10275c00311798002e109000be1090006112b80036
:10276c0024179800351798002e119000be11900078
:10277c0002007000838070003007980041079800b9
:10278c003e009000ce009000c409dd00cc00de00bd
:10279c00818071004400dd003007980041079800eb
:1027ac003e019000ce01900070002000010220003c
:1027bc00000071008180710030079800410798007b
:1027cc00809280009192800002002000f30f200084
:1027dc000002780081027800020078008300780003
:1027ec0000016200018062006102b8004417980089
:1027fc00551798004e109000de109000c000dd00c0
:10280c000000200040179800511798004e109000bf
:10281c00de1090006112b80044179800551798000c
:10282c004e119000de119000020070008380700049
:10283c0010079800210798001e009000ae00900031
:10284c00c409dd004c00de0000807100cc08de0005
:10285c0010079800210798001e019000ae0190000f
:10286c000000200001022000000071008180710036
:10287c00100798002107980030c0b300004f780073
:10288c0062003700f01a8100100f9800001b8100c5
:10289c00200f98006092800071928000f2ff2f0050
:1028ac00030020000002780081027800020078000a
:1028bc008300780000016200018062006102b800b0
:1028cc0064179800751798006e109000fe10900019
:1028dc00c000dd0000002000601798007117980000
:1028ec006e109000fe1090006112b80064179800f2
:1028fc00751798006e119000fe1190000200700088
:10290c008380700030079800410798003e009000cb
:10291c00ce009000c409dd00cc00de008180710087
:10292c004400dd0030079800410798003e019000fc
:10293c00ce01900070002000010220000000710008
:10294c0081807100300798004107980060928000e8
:10295c007192800002002000f30f2000000278002a
:10296c008102780002007800830078000001620088
:10297c00018062006102b800041f9800151f9800c6
:10298c000e1890009e189000c000dd000000200082
:10299c00001f9800111f98000e1890009e189000b0
:1029ac006112b800041f9800151f98000e199000b2
:1029bc009e19900002007000838070001007980030
:1029cc00210798001e009000ae009000c409dd00a5
:1029dc004c00de0000807100cc08de00100798006f
:1029ec00210798001e019000ae019000000020000d
:1029fc000102200000007100818071001007980016
:102a0c002107980020c0b300004f78003e009000d2
:102a1c00ce00900002ff2f00f30f20000002780080
:102a2c0081027800020078008300780000016200c7
:102a3c00018062006102b800241f9800351f9800c5
:102a4c002e189000be189000c000dd000000200081
:102a5c00201f9800311f98002e189000be1890006f
:102a6c006112b800241f9800351f98002e19900091
:102a7c00be1990000200700083807000300798002f
:102a8c00410798003e009000ce0090006600700058
:102a9c003007980041079800b8f90700b7f907000c
:102aac001e009000ae009000c2f607000019200036
:102abc0081082000bff607003e009000ce00900079
:102acc00bcf607007084270001022000b9f607004d
:102adc006000b800b7f607000f00370060bb20009d
:102aec00a10b2000b3f607006000b800b1f6070098
:102afc006000b800aff607001e84fb0021f8070049
:102b0c0080007800080044000e004000510098003e
:102b1c006000b800a7f607001e4fe90080c1eb006b
:102b2c009ecf1100edff3a0094f90700902121008f
:102b3c0010407800ed4f50000f003a005e009000fe
:102b4c000000e00009003a006e0090000000e00078
:102b5c0006003a007e0090000000e00003003a00fe
:102b6c000e0890000000e0001c0032001400200051
:102b7c00540f98001b003700902121001040780062
:102b8c00ec4f50000c003a005e0090000000e0009a
:102b9c0006003a006e0090000000e00003003a00ce
:102bac007e0090000000e0000c00320015002000b8
:102bbc00550f98000b0037005e0090000000e000fd
:102bcc0003003a006e0090000000e00003003200a9
:102bdc0010002000500f9800020037008000eb001e
:102bec00510f98005e0890004f0478000080fa00a6
:102bfc00000006003c00fa00881f780020c0b300db
:102c0c00004f78009021210010407800ed4f5000cb
:102c1c0067003a00f01a8100300f9800001b810009
:102c2c00400f9800101b8100500f9800201b810052
:102c3c00600f9800a0928000b1928000f2ff2f00ec
:102c4c000300200000027800810278000200780066
:102c5c008300780000016200018062006102b8000c
:102c6c0004179800151798000e1090009e109000f5
:102c7c00c000dd000000200000179800111798001c
:102c8c000e1090009e1090006112b800041798006e
:102c9c00151798000e1190009e1190000200700004
:102cac008380700030079800410798003e00900028
:102cbc00ce009000c409dd00cc00de0081807100e4
:102ccc004400dd0030079800410798003e01900059
:102cdc00ce01900070002000010220000000710065
:102cec00818071003007980041079800a092800005
:102cfc00b192800002002000f30f20000002780047
:102d0c0081027800020078008300780000016200e4
:102d1c00018062006102b8002417980035179800f2
:102d2c002e109000be109000c000dd0000002000ae
:102d3c0020179800311798002e109000be109000ac
:102d4c006112b80024179800351798002e119000c6
:102d5c00be11900002007000838070001007980074
:102d6c00210798001e009000ae009000c409dd0001
:102d7c004c00de0000807100cc08de0010079800cb
:102d8c00210798001e019000ae0190000000200069
:102d9c000102200000007100818071001007980072
:102dac002107980040c0b300004f7800cb003700db
:102dbc009021210010407800ec4f500065003a0043
:102dcc00f01a8100300f9800001b8100400f980012
:102ddc00101b8100500f980080928000919280000f
:102dec00f2ff2f000300200000027800810278001f
:102dfc00020078008300780000016200018062000c
:102e0c006102b80044179800551798004e109000b6
:102e1c00de109000c000dd0000002000401798007c
:102e2c00511798004e109000de1090006112b800ff
:102e3c0044179800551798004e119000de11900021
:102e4c0002007000838070003007980041079800e2
:102e5c003e009000ce009000c409dd00cc00de00e6
:102e6c00818071004400dd00300798004107980014
:102e7c003e019000ce019000700020000102200065
:102e8c0000007100818071003007980041079800a4
:102e9c00809280009192800002002000f30f2000ad
:102eac00000278008102780002007800830078002c
:102ebc0000016200018062006102b8006417980092
:102ecc00751798006e109000fe109000c000dd0089
:102edc000000200060179800711798006e10900089
:102eec00fe1090006112b8006417980075179800d6
:102efc006e119000fe119000020070008380700033
:102f0c0010079800210798001e009000ae0090005a
:102f1c00c409dd004c00de0000807100cc08de002e
:102f2c0010079800210798001e019000ae01900038
:102f3c00000020000102200000007100818071005f
:102f4c00100798002107980030c0b300004f78009c
:102f5c0062003700f01a8100300f9800001b8100ce
:102f6c00400f98006092800071928000f2ff2f0059
:102f7c000300200000027800810278000200780033
:102f8c008300780000016200018062006102b800d9
:102f9c00041f9800151f98000e1890009e189000a2
:102fac00c000dd0000002000001f9800111f9800d9
:102fbc000e1890009e1890006112b800041f980023
:102fcc00151f98000e1990009e19900002007000b9
:102fdc008380700030079800410798003e009000f5
:102fec00ce009000c409dd00cc00de0081807100b1
:102ffc004400dd0030079800410798003e01900026
:10300c00ce01900070002000010220000000710031
:10301c008180710030079800410798006092800011
:10302c007192800002002000f30f20000002780053
:10303c0081027800020078008300780000016200b1
:10304c00018062006102b800241f9800351f9800af
:10305c002e189000be189000c000dd00000020006b
:10306c00201f9800311f98002e189000be18900059
:10307c006112b800241f9800351f98002e1990007b
:10308c00be19900002007000838070001007980039
:10309c00210798001e009000ae009000c409dd00ce
:1030ac004c00de0000807100cc08de001007980098
:1030bc00210798001e019000ae0190000000200036
:1030cc00010220000000710081807100100798003f
:1030dc002107980020c0b300004f780027f80700a4
:1030ec003e009000ce00900032f50700a0032000b7
:1030fc00410220002ff50700a0b02300810820001a
:10310c002cf507001e009000ae00900029f507007a
:10311c00001920008108200026f507002c0037003c
:10312c001e80fb00000040000e00400030089000a4
:10313c000100200050079800610798005e00900085
:10314c00ee009000440add00cc00de00810072002d
:10315c004400dd0050079800610798005e01900064
:10316c00ee019000600020000102200000007100c0
:10317c008180710050079800610798005e009000f4
:10318c00ee0090000bf507006000b80009f5070091
:10319c0060b82100b10b200006f507006000b800f4
:1031ac0004f507006000b80002f5070010762e0049
:1031bc00810a2000fff407006000b800fdf407004e
:1031cc006000b800fbf40700f4f70700ebf707000a
:1031dc001e4fe90080c2eb009ecf1200d0ff3a00d8
:1031ec003e009000ce00900002ff2f00f30f200055
:1031fc0000027800810278000200780083007800d9
:10320c0000016200018062006102b800441f980056
:10321c00551f98004e189000de189000c000dd007d
:10322c0000002000401f9800511f98004e1890007d
:10323c00de1890006112b800441f9800551f9800ca
:10324c004e199000de19900002007000838070000f
:10325c0030079800410798003e009000ce00900087
:10326c0066007000300798004107980090212100fb
:10327c0010407800ed4f500003003a0040c0b300fe
:10328c00004f780009003700902121001040780091
:10329c00ec4f500003003a0030c0b300004f7800f0
:1032ac000200370020c0b300004f7800b3f70700ce
:1032bc001e009000ae009000bef407000019200024
:1032cc0081082000bbf407003e009000ce00900067
:1032dc00b8f407007084270001022000b5f4070041
:1032ec006000b800b3f407000f00370060bb20008b
:1032fc00a10b2000aff407006000b800adf407008c
:10330c006000b800abf407001e84fb001df607003c
:10331c0080007800080044000e0040007100980006
:10332c006000b800a3f407001e4fe90080c1eb0059
:10333c009ecf1100edff3a0090f70700902121007d
:10334c0010407800ed4f50001c003a00fe00900039
:10335c003e089000808f50000300320014002000c3
:10336c00740f98003e0037008e0890004e089000b5
:10337c00808f50000300320015002000750f98005c
:10338c00370037009e0890005e089000808f500038
:10339c000300320010002000700f9800300037003e
:1033ac00ae0890006e089000808f50002a0032000a
:1033bc0011002000710f9800290037009021210086
:1033cc0010407800ec4f500015003a00fe009000c1
:1033dc003e089000808f5000030032001200200045
:1033ec00720f98001e0037008e0890004e08900057
:1033fc00808f50000300320013002000730f9800e0
:10340c00170037009e0890005e089000808f5000d7
:10341c001100320014002000740f980010003700c7
:10342c00fe0090003e089000808f50000300320098
:10343c0015002000750f9800090037008e089000c9
:10344c004e089000808f50000300320010002000c6
:10345c00700f9800020037008000eb00710f98008d
:10346c007e0890004f0478000080fa0000000600ef
:10347c000600fa001007980021079800604e8000a3
:10348c0001022000010060000000e0000500320095
:10349c00ae0090001e0090005e0a0700004f7800fe
:1034ac0006003700ae0090001e00900035f90700b2
:1034bc002e009000c0fa0700004f7800604f80008b
:1034cc000000e800604f88001e80fb000080fa00be
:1034dc00000006000200fa000040eb00004f7800ec
:1034ec00090037001e80fb004200dd0080007800e0
:1034fc00b01b810000814000f0ff2f00f10f200075
:10350c000089be001e4fe800f0c3b3009e4f1000b0
:10351c00f4ff36000080fa00000006001200fa00ea
:10352c000040eb00004f7800409d200010407800d8
:10353c000004e000e4003a00904e800001002000fe
:10354c00c0918800d1918800c2918000d3918000f5
:10355c00501b8100611b8100000071008180710093
:10356c00c0918800d1918800c0918000d1918000d9
:10357c008100d1000080d300c0918800d1918800d7
:10358c00c2918000d39180004092800051928000c3
:10359c00800f5100818f590009003a00509d200086
:1035ac00e135220090487800f1352200104190005e
:1035bc00824878009e81fb00630798002601370043
:1035cc00c2918000d3918000609280007192800043
:1035dc00800f5100818f590009003a00509d200046
:1035ec0001362200904878001136220010429000db
:1035fc00844878009e82fb0065079800160137000e
:10360c008092800091928000e00f5000e08f580073
:10361c0010003200c2918000d39180008092800013
:10362c0091928000800f5100818f590009003a005f
:10363c00509d20002136220090487800313622001f
:10364c0010419000824878009e81fb00630798002f
:10365c0001013700a0928000b1928000e00f500071
:10366c00e08f580010003200c2918000d39180008e
:10367c00a0928000b1928000800f5100818f590080
:10368c0009003a00509d20004136220090487800f5
:10369c005136220010429000844878009e82fb0034
:1036ac0065079800ec003700c0918000d191800034
:1036bc004909dd004700de0000007100c708de008c
:1036cc0020079800c0918000d19180008100d1002a
:1036dc000080d300f043b20020479800009d2000ea
:1036ec00104078000080fb004200de00104798007c
:1036fc00701b810001002000c709dd00c900de003d
:10370c00818071004700dd00204988003149880024
:10371c00614e800000042000008060000000e0008a
:10372c00080032002049800031498000020020004e
:10373c00030820000200700083807000204988007c
:10374c0031498800711b81002e009000810f5000c0
:10375c0009003200701b8100c700dd00b01b810026
:10376c0043ff07000004e0000200320010cab3005f
:10377c00004f780057ff07002e029000741b890041
:10378c001e4090000081fb002e4090008080fb00ca
:10379c000004200001005000800f5100380034005c
:1037ac002e4090008080fb0000042000010050009f
:1037bc004200dd0000017800549d20002e40900056
:1037cc000080fb004200dd0080007800b01b81000f
:1037dc0000804000800178000400780080007800b0
:1037ec00030078004bf30700701b8100c700dd005d
:1037fc00b01b81001eff07000004e0000200320035
:10380c0010cbb300004f780032ff0700701b810013
:10381c000000e800701b8900009d2000104078001b
:10382c000081fb002e4090008080fb0000042000f3
:10383c00010050004200dd00000051000001780042
:10384c002e4090008080fb000004200001005000fe
:10385c004200dd0080007800509d20000080400078
:10386c0080007800b01b8100800178000100780096
:10387c00800078000300780026f307000f00370063
:10388c00009d2000104078000081fb00549d20001a
:10389c002e4090000080fb004200dd00800078008c
:1038ac00b01b81000080400080017800040078008b
:1038bc00800078000300780016f307009e82fb005e
:1038cc006507980064003700409d20001040780088
:1038dc000080fb00500798005e009000e10f500044
:1038ec004f003200de009000e48f500001003200e7
:1038fc0057003700509d2000104078000080fb00de
:10390c00300798003e00900001002000c808dd0040
:10391c000080fd00804078000040eb00501b8900c7
:10392c00611b8900609d2000104078000080fb0026
:10393c00400798004e0090006101b800501b8100b8
:10394c00611b81000000710081807100501b890097
:10395c00611b8900501b8100611b8100c000dd00d0
:10396c0000002000501b8900611b8900c091800061
:10397c00d1918000f2ff2f00f30f2000000278009d
:10398c008102780002007800830078000001620058
:10399c00018062006102b80074079800050f98005e
:1039ac007e0090008e089000c000dd00000020001a
:1039bc0070079800010f98007e0090008e08900010
:1039cc006112b80074079800050f98007e019000f2
:1039dc008e0990000200700083807000c0918800f6
:1039ec00d1918800c2918000d3918000501b81003e
:1039fc00611b81000000710081807100c091880002
:103a0c00d1918800501b8100611b8100301b890003
:103a1c00411b89009e81fb00630798000e00370054
:103a2c00701b8100c700dd00b01b810090fe0700f9
:103a3c000004e00003003200140c2000640798001e
:103a4c0005003700a50a2000650798000200370022
:103a5c001e80fb00600798006e0090000080fa004a
:103a6c00000006000400fa000040eb00004f780054
:103a7c000040eb00104798006000b80020918800cf
:103a8c003191880011c0b3008021210001487800d9
:103a9c00e8c2a900e902a900e842a900e862a8006e
:103aac00cbc2a800ca62a900ca82a900caa2a900f6
:103abc00ca42a80000000000cb22a900cb02a8003b
:103acc00000000000040eb00104798000000eb00e5
:103adc00604f8800000000000000000000000000a3
:103aec0055f50700104798001e4090000004e000b8
:103afc0095003a008ef207008afa07000040eb00ae
:103b0c0010479800604e80000010a100604e8800a5
:103b1c00b9f5070000192000510c07006dfe0700d5
:103b2c00e0918000f1918000809188009191880053
:103b3c0021c0b300802121000148780022ff200021
:103b4c008091800091918000a020070080918000de
:103b5c00919180000020b0000180b000809188001d
:103b6c00919188000000eb00009188001e407800c5
:103b7c000004e00056003a000191800020ff200074
:103b8c000080400090407800a0c3b30080cf50006c
:103b9c004f003a00009180000000e800009188007e
:103bac004b0037000191800020ff20000080400076
:103bbc0090407800a0c3b30080cf50001a003200b0
:103bcc001e4078000081fb000191800020ff200046
:103bdc000080400090407800209f200000004100b1
:103bec00014878001e4078000040e800004f780043
:103bfc00009180000000e800009188000191800095
:103c0c0020ff20000080400090407800a0c3b3004b
:103c1c0080cf50000400320001918000f01f200082
:103c2c00808f5000e6ff36000191800020ff2000bd
:103c3c000080400090407800a0c3b30080cf5000bb
:103c4c0023003a00009180000000e80000918800f9
:103c5c000040eb00004f7800209f20006715070004
:103c6c002efe0700104798001e4090000004e00054
:103c7c00170032009e409000a0cab30080cf5000c5
:103c8c000e003a0030c0b30081212100804878003a
:103c9c00d8fb07000004e00004003a0041c0b30068
:103cac0080212100014878000900370041cfb30082
:103cbc0080212100014878000500370030cfb30087
:103ccc00812121008048780010c0b3001047980073
:103cdc00409d200010407800e14f50000b00320056
:103cec0001918000f01f2000808f500007003e00e3
:103cfc001e409000e14f500004003200704e8000d6
:103d0c00680060000000e000a6ff3200409d20002b
:103d1c0010407800e14f50000b0032001e40900024
:103d2c00e14f500008003200704e800068006000c7
:103d3c000000e00004003a008021210010407800cf
:103d4c00e34f50007dff3600704e80000030a10024
:103d5c00704e8800f8f40700cbc2a900e842a90015
:103d6c00e862a9008040eb00409d200001487800eb
:103d7c000080fa00000006000200fa000000eb00d0
:103d8c00000f7800e8c2a80000000000e8c2a900fb
:103d9c00612e20009140780000c8b30000c0600084
:103dac000004e000040032001e007800010028002e
:103dbc0001007000000f7800e8c2a80000000000ad
:103dcc00e8c2a900e6c2bf0001c8b3000140600010
:103ddc000004e00002003200000024001e0f7000fe
:103dec00e8c2a80000000000e8c2a900e6c2bf00bb
:103dfc0001c8b300014060000004e0000200320082
:103e0c00000022001e0f7000e8c2a8000000000095
:103e1c00e8c2a900e6c2bf0001c8b30001406000bf
:103e2c000004e00002003200000021001e0f7000b0
:103e3c00e8c2a80000000000e8c2a900e6c2bf006a
:103e4c0001c8b300014060000004e0000200320031
:103e5c00008020001e0f7000e8c2a80000000000c7
:103e6c00e8c2a900e6c2bf0001c8b300014060006f
:103e7c000004e00002003200004020001e0f700021
:103e8c00e8c2a80000000000e8c2a900e6c2bf001a
:103e9c0001c8b300014060000004e00002003200e1
:103eac00002020001e0f7000e8c2a80000000000d7
:103ebc00e8c2a900e6c2bf0001c8b300014060001f
:103ecc000004e00002003200001020001e0f700001
:103edc00e8c2a80000000000e8c2a900e6c2bf00ca
:103eec0001c8b300014060000004e0000200320091
:103efc00000820001e0f7000e8c2a800000000009f
:103f0c00e8c2a900e6c2bf0001c8b30001406000ce
:103f1c000004e00002003200000420001e0f7000bc
:103f2c00e8c2a80000000000e8c2a900e6c2bf0079
:103f3c0001c8b300014060000004e0000200320040
:103f4c00000220001e0f7000e8c2a8000000000054
:103f5c00e8c2a900e6c2bf0001c8b300014060007e
:103f6c000004e000010032001e40a000e8c2a800de
:103f7c0000000000e8c2a900e6c2bf0001c8b300ff
:103f8c00014060000004e000010032001e30a0007f
:103f9c00e8c2a80000000000e8c2a900e6c2bf0009
:103fac0001c8b300014060000004e00001003200d1
:103fbc001e20a000e8c2a80000000000e8c2a90072
:103fcc00e6c2bf0001c8b300014060000004e0007d
:103fdc00010032001e10a000e8c2a8000000000082
:103fec00e8c2a900e6c2bf0001c8b30001406000ee
:103ffc000004e000010032001e00a000e8c2a9008d
:10400c001e0078000080fa00000006000200fa0092
:10401c00000f7800e8c2a8001e0078000000e00045
:10402c0003003d00e902a800e8c2a8000200370026
:10403c00e902a900e8c2a80000000000000000008e
:10404c00e8c2a9001e0078004e00de00610060008e
:10405c000004e00003003200e902a800e8c2a80056
:10406c0002003700e902a900e8c2a8000000000025
:10407c0000000000e8c2a9001e0078004d00de0020
:10408c00610060000004e00003003200e902a800b7
:10409c00e8c2a80002003700e902a900e8c2a800a3
:1040ac000000000000000000e8c2a9001e0078001b
:1040bc004c00de00610060000004e00003003200f0
:1040cc00e902a800e8c2a80002003700e902a90032
:1040dc00e8c2a8000000000000000000e8c2a9002f
:1040ec001e0078004b00de00610060000004e00060
:1040fc0003003200e902a800e8c2a8000200370061
:10410c00e902a900e8c2a8000000000000000000bd
:10411c00e8c2a9001e0078004a00de0061006000c1
:10412c000004e00003003200e902a800e8c2a80085
:10413c0002003700e902a900e8c2a8000000000054
:10414c0000000000e8c2a9001e0078004900de0053
:10415c00610060000004e00003003200e902a800e6
:10416c00e8c2a80002003700e902a900e8c2a800d2
:10417c000000000000000000e8c2a9001e0078004a
:10418c004800de00610060000004e0000300320023
:10419c00e902a800e8c2a80002003700e902a90061
:1041ac00e8c2a8000000000000000000e8c2a9005e
:1041bc001e0078004700de00610060000004e00093
:1041cc0003003200e902a800e8c2a8000200370090
:1041dc00e902a900e8c2a8000000000000000000ed
:1041ec00e8c2a9001e0078004600de0061006000f5
:1041fc000004e00003003200e902a800e8c2a800b5
:10420c0002003700e902a900e8c2a8000000000083
:10421c0000000000e8c2a9001e0078004500de0086
:10422c00610060000004e00003003200e902a80015
:10423c00e8c2a80002003700e902a900e8c2a80001
:10424c000000000000000000e8c2a9001e00780079
:10425c004400de00610060000004e0000300320056
:10426c00e902a800e8c2a80002003700e902a90090
:10427c00e8c2a8000000000000000000e8c2a9008d
:10428c001e0078004300de00610060000004e000c6
:10429c0003003200e902a800e8c2a80002003700bf
:1042ac00e902a900e8c2a80000000000000000001c
:1042bc00e8c2a9001e0078004200de006100600028
:1042cc000004e00003003200e902a800e8c2a800e4
:1042dc0002003700e902a900e8c2a80000000000b3
:1042ec0000000000e8c2a9001e0078000000d10008
:1042fc00610060000004e00003003200e902a80045
:10430c00e8c2a80002003700e902a900e8c2a80030
:10431c000000000000000000e8c2a9009e00780028
:10432c00618060000004e00003003200e902a80094
:10433c00e8c2a80002003700e902a900e8c2a80000
:10434c000000000000000000e8c2a9000080fa0094
:10435c00000006000600fa000000eb00000f7800d9
:10436c000000eb00100798000040eb00404798005d
:10437c006000b8008ff007000020200041002000f2
:10438c008cf007006000b8008af007000080200065
:10439c000102200087f0070000192000810820008e
:1043ac0084f0070000be25000102200081f0070008
:1043bc0010842700010220007ef007006000b80086
:1043cc007cf0070000892000a10b200079f0070089
:1043dc006000b80077f007006000b80075f00700c7
:1043ec00e8f10700000f78006000b80071f00700da
:1043fc0000862500010220006ef0070010842700c3
:10440c00010220006bf007006000b80069f00700a3
:10441c0000892000a10b200066f007006000b800a6
:10442c0064f007006000b80062f00700d5f10700e7
:10443c00100798006000b8005ef007009e0078003e
:10444c00e0022000808f500007003a009e00900090
:10445c00900a2000808f500003003a000040eb00cf
:10446c00404798000200370010c0b3004047980046
:10447c004e4090000080fb000080fa000000060017
:10448c000800fa000040eb00404798000040eb00a9
:10449c00504798000ffc0700e0918000f1918000dc
:1044ac00008fbe000000200001032000e091880076
:1044bc00f1918800e0918000f1918000809188005a
:1044cc009191880021c0b30080212100014878001f
:1044dc0022ff200080918000919180003b1e0700fc
:1044ec0080918000919180000020b0000180b0008c
:1044fc0080918800919188000000eb000091880069
:10450c004e4090000004e0004c003a000191800005
:10451c0020ff20000080400090407800a0c3b30032
:10452c0080cf500045003a00009180000000e80068
:10453c0000918800410037000191800020ff20008d
:10454c000080400090407800a0c3b30080cf5000a2
:10455c001a0032004e4090000081fb000191800057
:10456c0020ff20000080400090407800209f200019
:10457c0000004100014878004e4090000040e800e7
:10458c0040479800009180000000e80000918800ee
:10459c000191800020ff20000080400090407800b6
:1045ac00a0c3b30080cf5000040032000191800002
:1045bc00f01f2000808f5000e6ff36000191800034
:1045cc0020ff20000080400090407800a0c3b30082
:1045dc0080cf500019003a00009180000000e800e4
:1045ec00009188000040eb0040479800209f20007d
:1045fc0002130700c9fb0700504798005e4090006b
:10460c000004e0000d003200de409000a0cab300b0
:10461c0080cf500004003a0041c0b300802121003b
:10462c00014878000500370030cfb300812121000c
:10463c008048780010c0b30050479800409d20007f
:10464c0010407800e14f50000b00320001918000c7
:10465c00f01f2000808f500007003e005e4090004d
:10466c00e14f500004003200704e80006800600082
:10467c000000e000b0ff3200409d200010407800a8
:10468c00e14f50000b0032005e409000e14f5000b3
:10469c0008003200704e8000680060000000e000ee
:1046ac0004003a008021210010407800e34f5000b4
:1046bc0087ff36001e00be00e0918800f191880053
:1046cc000080fa00000006000800fa006000b80044
:1046dc002007980031079800a0002000600907000f
:1046ec006000b800b3ef070000202000410020005c
:1046fc00b0ef07006000b800aeef070000802000ac
:10470c0001022000abef07000019200081082000f7
:10471c00a8ef070010f0270001022000a5ef07000a
:10472c00200c200001022000a2ef07006000b8005e
:10473c00a0ef0700800020001007980010932100c4
:10474c00a10b20009bef07006000b80099ef070059
:10475c006000b80097ef07001e0090000000e90011
:10476c00100798001e0090000000e000f3ff3a00d4
:10477c0000422000410220008eef070000b0230011
:10478c00810820008bef0700200020001007980004
:10479c00008020000102200086ef07000019200095
:1047ac008108200083ef07002e009000be009000cf
:1047bc004409dd00cc00de00810071004400dd0006
:1047cc0020079800310798002e019000be01900040
:1047dc001000200001022000000071008180710097
:1047ec0020079800310798002e009000be00900022
:1047fc0070ef07006000b8006eef07001088200013
:10480c00b10b20006bef07006000b80069ef0700e8
:10481c006000b80067ef070010762e00810a2000b8
:10482c0064ef07006000b80062ef07006000b8009a
:10483c0060ef070059f20700004020000100200043
:10484c0020079800310798001e0090000000e90036
:10485c00100798001e0090000000e000ccff3a000a
:10486c00008020000102200052ef070000192000f8
:10487c00810820004fef07001003200041022000a8
:10488c004cef070010b023008108200049ef07000f
:10489c0010f027000102200046ef0700200c20003a
:1048ac000102200043ef07006000b80041ef070051
:1048bc008000200010079800208b2100b10b2000f5
:1048cc003cef07006000b8003aef07006000b8004a
:1048dc0038ef070010762e00810a200035ef070014
:1048ec006000b80033ef07006000b80031ef07003c
:1048fc0000202000410020002eef07006000b800cf
:10490c002cef070000b023000108200029ef07005e
:10491c0000c223008108200026ef07006000b800c9
:10492c0024ef070097f00700000f78006000b80034
:10493c0020ef07001e0078000000e000ecff3500bf
:10494c001e0090000000e900100798001e00900067
:10495c000000e000d8ff3a000080fa0000000600da
:10496c001200fa000040eb00204f98000040eb00d2
:10497c00304f98000040eb00404f98000000eb00d7
:10498c00100798000000eb00000f78000000eb000f
:10499c00e0908800cffa0700604e80000050a00025
:1049ac00604e8800009280001192800030079800c1
:1049bc00410798000040eb00204f98000e00370094
:1049cc003e009000ce009000d81d07003e019000e4
:1049dc00ce019000000024000100200002004000e5
:1049ec008380480030079800410798002e489000bb
:1049fc000040e800204f98002e489000ff4f5000d8
:104a0c00efff36000040eb00204f98008040eb0099
:104a1c00409d2000014878003e4890000004e000d2
:104a2c0084013a00e0918000f1918000809188002f
:104a3c009191880000928000119280006091880012
:104a4c00719188000040eb00304f9800a1c2b30078
:104a5c00802121000148780022ff200080918000f5
:104a6c0091918000d91c0700809180009191800069
:104a7c000020b0000180b0008091880091918800e6
:104a8c000000eb00009188002e4890000004e0002c
:104a9c0049013a000191800020ff20000080400075
:104aac0090407800a0c3b30080cf500042013a0080
:104abc00009180000000e800009188003e01370062
:104acc000191800020ff2000008040009040780081
:104adc00a0c3b30080cf50001a0032002e489000c3
:104aec000081fb000191800020ff2000008040002d
:104afc0090407800209f2000000041000148780081
:104b0c002e4890000040e800204f98000091800053
:104b1c000000e800009188000191800020ff200037
:104b2c000080400090407800a0c3b30080cf5000bc
:104b3c000400320001918000f01f2000808f500093
:104b4c00e6ff36000191800020ff2000008040002d
:104b5c0090407800a0c3b30080cf500016013a00fb
:104b6c00009180000000e800009188000040eb00fc
:104b7c00204f9800209f2000a011070067fa070023
:104b8c00304f98003e4890000004e0000a013200cb
:104b9c00be489000a0cab30080cf500006013a0076
:104bac0020928000319280004091880051918800c1
:104bbc00209180003191800002002000f3ff2f0033
:104bcc0000027800810278000200780083007800ef
:104bdc0000016200018062006102b8007407980055
:104bec00050f98007e0090008e089000c000dd003c
:104bfc000000200070079800010f98007e009000c4
:104c0c008e0890006112b80074079800050f980088
:104c1c007e0190008e09900002007000838070006d
:104c2c0030079800410798003e009000ce0090009d
:104c3c004008de0001002000100798002091800041
:104c4c0031918000000f78000040eb00404f98003d
:104c5c004e4990008281fb001e0078008040780055
:104c6c0000c0eb0080c0600020df2000008041000d
:104c7c00014878000240e800404f98004e499000ef
:104c8c008281fb001e0078004800de008040780026
:104c9c0000c0eb0080c0600020df200000804100dd
:104cac00014878000240e800404f98004e499000bf
:104cbc008281fb001e0090008040780000c0eb0059
:104ccc0080c0600020df2000008041000148780097
:104cdc000240e800404f98004e4990008281fb0052
:104cec001e0090004800de008040780000c0eb0001
:104cfc0080c0600020df2000008041000148780067
:104d0c000240e800404f9800f31a810023079800f6
:104d1c004e4990008281fb002e009000804078006c
:104d2c0000c0eb0080c0600020df2000008041004c
:104d3c00014878000240e800404f98004e4990002e
:104d4c008281fb002e0090004800de00804078003d
:104d5c0000c0eb0080c0600020df2000008041001c
:104d6c00014878000240e800404f9800041b810085
:104d7c00240798004e4990008281fb002e00900081
:104d8c008040780000c0eb0080c0600020df200075
:104d9c0000804100014878000240e800404f980034
:104dac004e4990008281fb002e0090004800de00ee
:104dbc008040780000c0eb0080c0600020df200045
:104dcc0000804100014878000240e800404f980004
:104ddc009021210010407800ec4f5000040032006c
:104dec009021210010407800ed4f500019003a003e
:104dfc00151b8100250798004e4990008281fb000d
:104e0c002e0090008040780000c0eb0080c0600055
:104e1c0020df200000804100014878000240e800bb
:104e2c00404f98004e4990008281fb002e0090006c
:104e3c004800de008040780000c0eb0080c06000bd
:104e4c0020df200000804100014878000240e8008b
:104e5c00404f98009021210010407800ed4f5000f9
:104e6c0019003a00201b8100200798004e49900041
:104e7c008281fb002e0090008040780000c0eb0087
:104e8c0080c0600020df20000080410001487800d5
:104e9c000240e800404f98004e4990008281fb0090
:104eac002e0090004800de008040780000c0eb002f
:104ebc0080c0600020df20000080410001487800a5
:104ecc000240e800404f98004e4990008281fb0060
:104edc00609b2000104078000080fb006300b9004c
:104eec0080007800c02021000080400090407800b5
:104efc0020df200000804100014878000240e800db
:104f0c00404f98004e4990008281fb00609b20002e
:104f1c00104078000080fb006300b9008000e800be
:104f2c00c0202100008040009040780020df20004d
:104f3c0000804100014878000240e800404f980092
:104f4c004e4990008281fb00609b2000104078004d
:104f5c000080fb006300b9008080e800c0202100c5
:104f6c00008040009040780020df2000008041004d
:104f7c00014878000240e800404f98004e489000ed
:104f8c000081fb00902121009040780020df200060
:104f9c00000041000148780022df20004091800091
:104fac0051918000e11b070022bf2000409180003e
:104fbc0051918000851b0700409d20001040780017
:104fcc00e14f50000b00320001918000f01f2000d7
:104fdc00808f500007003e003e489000e14f50008b
:104fec0004003200704e8000680060000000e00099
:104ffc00b3fe3200409d200010407800e14f50007d
:10500c000c0032003e489000e14f50000900320085
:10501c00704e8000680060000000e00005003a005f
:10502c008021210090407800e0c2b30080cf500076
:10503c0089fe36000080fa00000006000200fa002b
:10504c00881f78000000eb00000f78006000b800ab
:10505c0058ed0700002020004100200055ed07000e
:10506c006000b80053ed0700008020000102200012
:10507c0050ed070000192000810820004ded0700bd
:10508c0000302000b10e20004aed0700708427008c
:10509c000102200047ed07006000b80045ed070055
:1050ac0060b92000a10b200042ed07006000b800a1
:1050bc0040ed07006000b8003eed07001e047800cc
:1050cc00b0ee07008040780020ff20000000440074
:1050dc00014878001e0fe8006000b80035ed0700ad
:1050ec0060bb2d00a10b200032ed07006000b80062
:1050fc0030ed07006000b8002eed0700603d2d007c
:10510c00a10b20002bed07006000b80029ed070073
:10511c006000b80027ed07001e04780099ee070028
:10512c008040780020ff20000000440001487800f7
:10513c001e0fe8006000b8001eed070060bb2000e9
:10514c00a10b20001bed07006000b80019ed070053
:10515c006000b80017ed07001e04780089ee070008
:10516c008040780020ff20000000440001487800b7
:10517c006000b8000fed07001e0fe80000202000b3
:10518c00410020000bed07006000b80009ed07009e
:10519c00f03f20009e0f1000c1ff36004f04780036
:1051ac000080fa00000006000400fa000040eb004a
:1051bc00004f78000040eb00104798006000b800ea
:1051cc00209188003191880011c0b300802121000a
:1051dc0001487800e8c2a900e902a900e842a90048
:1051ec00e862a800cbc2a800ca62a900ca82a900c2
:1051fc00caa2a900ca42a80000000000cb22a90044
:10520c00cb02a800000000000040eb001047980003
:10521c000000eb00604f880087ef070010479800f4
:10522c001e4090000004e0003d003a00c0ec070076
:10523c00bcf407000040eb0010479800604e800063
:10524c000010a100604e8800ebef07000019200051
:10525c00830607003ffc0700304798003e40900053
:10526c000004e0000c003a00b3ef0700604e800031
:10527c000050a000604e88006fef070010479800a8
:10528c001e4090000004e00025003a0033000700a7
:10529c001047980022003700704e80000070a0006c
:1052ac00704e880008fd0700604e80000060a00072
:1052bc00604e880072fc0700704e80000070a100e8
:1052cc00704e880011c0b300802121000148780085
:1052dc0020fc0700304798003e4090000004e0009e
:1052ec000c003a0094ef0700604e80000050a000c4
:1052fc00604e880050ef0700104798001e40900049
:10530c000004e00006003a00140007001047980063
:10531c0003003700b1cfb300802121000148780091
:10532c00604e80000060a100604e8800704e8000ce
:10533c000030a100704e88007fef0700cbc2a9009f
:10534c00e842a900e862a9008040eb00409d2000e3
:10535c00014878000080fa00000006002200fa00e4
:10536c000000eb00200798000000eb0030079800cd
:10537c000000eb00200f98000040eb003047980035
:10538c0021c0b300802121000148780020928000c8
:10539c0031928000409188005191880022df2000da
:1053ac004091800051918000881a070030df200066
:1053bc00104078000080fb00500798005e009000c1
:1053cc004800dd005007980020df200010407800d6
:1053dc008080fb005e0090000080700050079800f9
:1053ec005e0090003007980050df200010407800dd
:1053fc000080fb00500798005e0090004800dd0024
:10540c005007980040df2000104078008080fb009f
:10541c005e00900000807000500798005e009000c5
:10542c00200798002e009000010020002091880099
:10543c00319188002091800031918000c000dd0006
:10544c000000200002002000f3ff2f000002780073
:10545c00810278000200780083007800000262006c
:10546c00018062006101b800520f9800630f980030
:10547c005e089000ee089000c000dd0000002000e7
:10548c00500f9800610f98005e099000ee09900093
:10549c006120b800500f9800610f98005e089000d2
:1054ac00ee08900000017100818171003e009000b7
:1054bc0001002000000071008180710020918800a3
:1054cc003191880070df2000104078000080fb00d4
:1054dc00600798006e009000c800dd0000f02f00ff
:1054ec008080600060df2000104078000080fb00ae
:1054fc00008070006007980090df2000104078005a
:10550c000080fb00700798007e009000c800dd0052
:10551c0000f02f008080600080df200010407800b9
:10552c000080fb00008070007007980080c0b30002
:10553c00004f78009021210010407800ec4f500073
:10554c00040032009021210010407800ed4f5000f3
:10555c000f003a00b0df2000104078000080fb0004
:10556c00000f98000e089000c800dd0000f02f001e
:10557c0080806000a0df2000104078000080fb00dd
:10558c0000807000000f9800a0c0b300004f78009e
:10559c009021210010407800ed4f50000f003a0090
:1055ac00d0df2000104078000080fb00100f980026
:1055bc001e089000c800dd0000f02f008080600005
:1055cc00c0df2000104078000080fb0000807000dd
:1055dc00100f9800c0c0b300004f7800609b2000f3
:1055ec00104078000081fb009e80fb0020df200033
:1055fc0000804000904178006310b9008000780072
:10560c00c020210000804000034878001e4fe800b5
:10561c00609b2000104078000081fb009e80fb0006
:10562c0020df200000804000904178006310b9001a
:10563c008000e800c0202100008040000348780072
:10564c001e4fe800609b2000104078000081fb009a
:10565c009e80fb0020df20000080400090417800fd
:10566c006310b9008080e800c02021000080400059
:10567c00034878001e4fe8009e80fb0020df2000ce
:10568c00008040009040780011479800e091800025
:10569c00f1918000409188005191880022df200018
:1056ac004091800051918000c81907002e0890008d
:1056bc000000e800200f98000040eb002047980005
:1056cc000000eb00400798004e0090008000e800be
:1056dc0020df20000080400010407800e14f4000a7
:1056ec00590032004e0090008000e80020df2000be
:1056fc0000804000104078000080fb0050079800ac
:10570c005e0090004800dd0050079800ce0090002d
:10571c0020df200000804000104078008080fb00db
:10572c005e00900000807000500798005e009000b2
:10573c00200798004e009000e300400020df20007e
:10574c0000804000104078000080fb00500798005b
:10575c005e0090004800dd00500798004e0090005d
:10576c008080e80020df200000804000104078009e
:10577c008080fb005e009000008070005007980055
:10578c005e009000300798004e00900064004000ce
:10579c00400798002e00900001002000300f980068
:1057ac00410f98003e089000ce089000c000dd002c
:1057bc000000200002002000f3ff2f000002780000
:1057cc0081027800020078008300780000026200f9
:1057dc00018062006101b800720f980003179800f5
:1057ec007e0890008e109000c000dd0000002000ac
:1057fc00700f9800011798007e0990008e11900090
:10580c006120b800700f9800011798007e08900076
:10581c008e10900000017100818171003e0090009b
:10582c00010020000000710081807100300f980091
:10583c00410f98004e019000be0090002e00900089
:10584c00f000070030479800001020004007980037
:10585c002e4090000040e800204798003e40900009
:10586c000004e00003003a002e409000e14f50008d
:10587c0095ff360040918000519180000020b000cf
:10588c000180b00040918800519188003e4090000a
:10589c000004e0000e003a003e099000ce09900092
:1058ac002091800031918000800f5100818f590030
:1058bc0007003100429180005391800020928000bb
:1058cc0031928000800f5100818f590073ff390095
:1058dc003e4090000004e00016003a0031c0b300d6
:1058ec0080212100014878001e0890000e099000cc
:1058fc00fe0090006e029000800178000400780099
:10590c0013000700304798003e4090000004e00070
:10591c000400320041cfb3008021210001487800ff
:10592c000700370041c0b3008021210001487800f6
:10593c000300370031cfb3008021210001487800eb
:10594c003e4090000080fb000080fa000000060042
:10595c001e00fa0070079800010f9800120f9800b3
:10596c00230f98000000eb00100798000000eb00dc
:10597c00200798004092800051928000a08f8800f0
:10598c00b18f88006092800071928000c08f880077
:10599c00d18f88008092800091928000e08f8800e7
:1059ac00f18f8800a0928000b19280000090880056
:1059bc00119088007e009000f09288008e08900074
:1059cc00019388001e09900012938800ae09900084
:1059dc002393880090212100104078000080fb0068
:1059ec00400f98004e0a9000ec0f52000600320057
:1059fc00ce0a9000ed8f52000600320020c0b3009a
:105a0c00004f78000500370030c0b300004f78001d
:105a1c000200370040c0b300004f78000040eb009c
:105a2c00104798006f0037001e4090000080fb006c
:105a3c00c200dd00401f2100008040001000be00ad
:105a4c0002002000f3ff2f00000278008102780092
:105a5c00020078008300780000016200018062007f
:105a6c006102b800540f9800650f98005e08900012
:105a7c00ee089000c000dd0000002000500f9800e0
:105a8c00610f98005e089000ee0890006112b8005b
